{
  "_format": "hh-sol-artifact-1",
  "contractName": "Pool",
  "sourceName": "@aave/core-v3/contracts/protocol/pool/Pool.sol",
  "abi": [
    {
      "inputs": [
        {
          "internalType": "contract IPoolAddressesProvider",
          "name": "provider",
          "type": "address"
        }
      ],
      "stateMutability": "nonpayable",
      "type": "constructor"
    },
    {
      "anonymous": false,
      "inputs": [
        {
          "indexed": true,
          "internalType": "address",
          "name": "reserve",
          "type": "address"
        },
        {
          "indexed": true,
          "internalType": "address",
          "name": "backer",
          "type": "address"
        },
        {
          "indexed": false,
          "internalType": "uint256",
          "name": "amount",
          "type": "uint256"
        },
        {
          "indexed": false,
          "internalType": "uint256",
          "name": "fee",
          "type": "uint256"
        }
      ],
      "name": "BackUnbacked",
      "type": "event"
    },
    {
      "anonymous": false,
      "inputs": [
        {
          "indexed": true,
          "internalType": "address",
          "name": "reserve",
          "type": "address"
        },
        {
          "indexed": false,
          "internalType": "address",
          "name": "user",
          "type": "address"
        },
        {
          "indexed": true,
          "internalType": "address",
          "name": "onBehalfOf",
          "type": "address"
        },
        {
          "indexed": false,
          "internalType": "uint256",
          "name": "amount",
          "type": "uint256"
        },
        {
          "indexed": false,
          "internalType": "enum DataTypes.InterestRateMode",
          "name": "interestRateMode",
          "type": "uint8"
        },
        {
          "indexed": false,
          "internalType": "uint256",
          "name": "borrowRate",
          "type": "uint256"
        },
        {
          "indexed": true,
          "internalType": "uint16",
          "name": "referralCode",
          "type": "uint16"
        }
      ],
      "name": "Borrow",
      "type": "event"
    },
    {
      "anonymous": false,
      "inputs": [
        {
          "indexed": true,
          "internalType": "address",
          "name": "target",
          "type": "address"
        },
        {
          "indexed": false,
          "internalType": "address",
          "name": "initiator",
          "type": "address"
        },
        {
          "indexed": true,
          "internalType": "address",
          "name": "asset",
          "type": "address"
        },
        {
          "indexed": false,
          "internalType": "uint256",
          "name": "amount",
          "type": "uint256"
        },
        {
          "indexed": false,
          "internalType": "enum DataTypes.InterestRateMode",
          "name": "interestRateMode",
          "type": "uint8"
        },
        {
          "indexed": false,
          "internalType": "uint256",
          "name": "premium",
          "type": "uint256"
        },
        {
          "indexed": true,
          "internalType": "uint16",
          "name": "referralCode",
          "type": "uint16"
        }
      ],
      "name": "FlashLoan",
      "type": "event"
    },
    {
      "anonymous": false,
      "inputs": [
        {
          "indexed": true,
          "internalType": "address",
          "name": "asset",
          "type": "address"
        },
        {
          "indexed": false,
          "internalType": "uint256",
          "name": "totalDebt",
          "type": "uint256"
        }
      ],
      "name": "IsolationModeTotalDebtUpdated",
      "type": "event"
    },
    {
      "anonymous": false,
      "inputs": [
        {
          "indexed": true,
          "internalType": "address",
          "name": "collateralAsset",
          "type": "address"
        },
        {
          "indexed": true,
          "internalType": "address",
          "name": "debtAsset",
          "type": "address"
        },
        {
          "indexed": true,
          "internalType": "address",
          "name": "user",
          "type": "address"
        },
        {
          "indexed": false,
          "internalType": "uint256",
          "name": "debtToCover",
          "type": "uint256"
        },
        {
          "indexed": false,
          "internalType": "uint256",
          "name": "liquidatedCollateralAmount",
          "type": "uint256"
        },
        {
          "indexed": false,
          "internalType": "address",
          "name": "liquidator",
          "type": "address"
        },
        {
          "indexed": false,
          "internalType": "bool",
          "name": "receiveAToken",
          "type": "bool"
        }
      ],
      "name": "LiquidationCall",
      "type": "event"
    },
    {
      "anonymous": false,
      "inputs": [
        {
          "indexed": true,
          "internalType": "address",
          "name": "reserve",
          "type": "address"
        },
        {
          "indexed": false,
          "internalType": "address",
          "name": "user",
          "type": "address"
        },
        {
          "indexed": true,
          "internalType": "address",
          "name": "onBehalfOf",
          "type": "address"
        },
        {
          "indexed": false,
          "internalType": "uint256",
          "name": "amount",
          "type": "uint256"
        },
        {
          "indexed": true,
          "internalType": "uint16",
          "name": "referralCode",
          "type": "uint16"
        }
      ],
      "name": "MintUnbacked",
      "type": "event"
    },
    {
      "anonymous": false,
      "inputs": [
        {
          "indexed": true,
          "internalType": "address",
          "name": "reserve",
          "type": "address"
        },
        {
          "indexed": false,
          "internalType": "uint256",
          "name": "amountMinted",
          "type": "uint256"
        }
      ],
      "name": "MintedToTreasury",
      "type": "event"
    },
    {
      "anonymous": false,
      "inputs": [
        {
          "indexed": true,
          "internalType": "address",
          "name": "reserve",
          "type": "address"
        },
        {
          "indexed": true,
          "internalType": "address",
          "name": "user",
          "type": "address"
        }
      ],
      "name": "RebalanceStableBorrowRate",
      "type": "event"
    },
    {
      "anonymous": false,
      "inputs": [
        {
          "indexed": true,
          "internalType": "address",
          "name": "reserve",
          "type": "address"
        },
        {
          "indexed": true,
          "internalType": "address",
          "name": "user",
          "type": "address"
        },
        {
          "indexed": true,
          "internalType": "address",
          "name": "repayer",
          "type": "address"
        },
        {
          "indexed": false,
          "internalType": "uint256",
          "name": "amount",
          "type": "uint256"
        },
        {
          "indexed": false,
          "internalType": "bool",
          "name": "useATokens",
          "type": "bool"
        }
      ],
      "name": "Repay",
      "type": "event"
    },
    {
      "anonymous": false,
      "inputs": [
        {
          "indexed": true,
          "internalType": "address",
          "name": "reserve",
          "type": "address"
        },
        {
          "indexed": false,
          "internalType": "uint256",
          "name": "liquidityRate",
          "type": "uint256"
        },
        {
          "indexed": false,
          "internalType": "uint256",
          "name": "stableBorrowRate",
          "type": "uint256"
        },
        {
          "indexed": false,
          "internalType": "uint256",
          "name": "variableBorrowRate",
          "type": "uint256"
        },
        {
          "indexed": false,
          "internalType": "uint256",
          "name": "liquidityIndex",
          "type": "uint256"
        },
        {
          "indexed": false,
          "internalType": "uint256",
          "name": "variableBorrowIndex",
          "type": "uint256"
        }
      ],
      "name": "ReserveDataUpdated",
      "type": "event"
    },
    {
      "anonymous": false,
      "inputs": [
        {
          "indexed": true,
          "internalType": "address",
          "name": "reserve",
          "type": "address"
        },
        {
          "indexed": true,
          "internalType": "address",
          "name": "user",
          "type": "address"
        }
      ],
      "name": "ReserveUsedAsCollateralDisabled",
      "type": "event"
    },
    {
      "anonymous": false,
      "inputs": [
        {
          "indexed": true,
          "internalType": "address",
          "name": "reserve",
          "type": "address"
        },
        {
          "indexed": true,
          "internalType": "address",
          "name": "user",
          "type": "address"
        }
      ],
      "name": "ReserveUsedAsCollateralEnabled",
      "type": "event"
    },
    {
      "anonymous": false,
      "inputs": [
        {
          "indexed": true,
          "internalType": "address",
          "name": "reserve",
          "type": "address"
        },
        {
          "indexed": false,
          "internalType": "address",
          "name": "user",
          "type": "address"
        },
        {
          "indexed": true,
          "internalType": "address",
          "name": "onBehalfOf",
          "type": "address"
        },
        {
          "indexed": false,
          "internalType": "uint256",
          "name": "amount",
          "type": "uint256"
        },
        {
          "indexed": true,
          "internalType": "uint16",
          "name": "referralCode",
          "type": "uint16"
        }
      ],
      "name": "Supply",
      "type": "event"
    },
    {
      "anonymous": false,
      "inputs": [
        {
          "indexed": true,
          "internalType": "address",
          "name": "reserve",
          "type": "address"
        },
        {
          "indexed": true,
          "internalType": "address",
          "name": "user",
          "type": "address"
        },
        {
          "indexed": false,
          "internalType": "enum DataTypes.InterestRateMode",
          "name": "interestRateMode",
          "type": "uint8"
        }
      ],
      "name": "SwapBorrowRateMode",
      "type": "event"
    },
    {
      "anonymous": false,
      "inputs": [
        {
          "indexed": true,
          "internalType": "address",
          "name": "user",
          "type": "address"
        },
        {
          "indexed": false,
          "internalType": "uint8",
          "name": "categoryId",
          "type": "uint8"
        }
      ],
      "name": "UserEModeSet",
      "type": "event"
    },
    {
      "anonymous": false,
      "inputs": [
        {
          "indexed": true,
          "internalType": "address",
          "name": "reserve",
          "type": "address"
        },
        {
          "indexed": true,
          "internalType": "address",
          "name": "user",
          "type": "address"
        },
        {
          "indexed": true,
          "internalType": "address",
          "name": "to",
          "type": "address"
        },
        {
          "indexed": false,
          "internalType": "uint256",
          "name": "amount",
          "type": "uint256"
        }
      ],
      "name": "Withdraw",
      "type": "event"
    },
    {
      "inputs": [],
      "name": "ADDRESSES_PROVIDER",
      "outputs": [
        {
          "internalType": "contract IPoolAddressesProvider",
          "name": "",
          "type": "address"
        }
      ],
      "stateMutability": "view",
      "type": "function"
    },
    {
      "inputs": [],
      "name": "BRIDGE_PROTOCOL_FEE",
      "outputs": [
        {
          "internalType": "uint256",
          "name": "",
          "type": "uint256"
        }
      ],
      "stateMutability": "view",
      "type": "function"
    },
    {
      "inputs": [],
      "name": "FLASHLOAN_PREMIUM_TOTAL",
      "outputs": [
        {
          "internalType": "uint128",
          "name": "",
          "type": "uint128"
        }
      ],
      "stateMutability": "view",
      "type": "function"
    },
    {
      "inputs": [],
      "name": "FLASHLOAN_PREMIUM_TO_PROTOCOL",
      "outputs": [
        {
          "internalType": "uint128",
          "name": "",
          "type": "uint128"
        }
      ],
      "stateMutability": "view",
      "type": "function"
    },
    {
      "inputs": [],
      "name": "MAX_NUMBER_RESERVES",
      "outputs": [
        {
          "internalType": "uint16",
          "name": "",
          "type": "uint16"
        }
      ],
      "stateMutability": "view",
      "type": "function"
    },
    {
      "inputs": [],
      "name": "MAX_STABLE_RATE_BORROW_SIZE_PERCENT",
      "outputs": [
        {
          "internalType": "uint256",
          "name": "",
          "type": "uint256"
        }
      ],
      "stateMutability": "view",
      "type": "function"
    },
    {
      "inputs": [],
      "name": "POOL_REVISION",
      "outputs": [
        {
          "internalType": "uint256",
          "name": "",
          "type": "uint256"
        }
      ],
      "stateMutability": "view",
      "type": "function"
    },
    {
      "inputs": [
        {
          "internalType": "address",
          "name": "asset",
          "type": "address"
        },
        {
          "internalType": "uint256",
          "name": "amount",
          "type": "uint256"
        },
        {
          "internalType": "uint256",
          "name": "fee",
          "type": "uint256"
        }
      ],
      "name": "backUnbacked",
      "outputs": [
        {
          "internalType": "uint256",
          "name": "",
          "type": "uint256"
        }
      ],
      "stateMutability": "nonpayable",
      "type": "function"
    },
    {
      "inputs": [
        {
          "internalType": "address",
          "name": "asset",
          "type": "address"
        },
        {
          "internalType": "uint256",
          "name": "amount",
          "type": "uint256"
        },
        {
          "internalType": "uint256",
          "name": "interestRateMode",
          "type": "uint256"
        },
        {
          "internalType": "uint16",
          "name": "referralCode",
          "type": "uint16"
        },
        {
          "internalType": "address",
          "name": "onBehalfOf",
          "type": "address"
        }
      ],
      "name": "borrow",
      "outputs": [],
      "stateMutability": "nonpayable",
      "type": "function"
    },
    {
      "inputs": [
        {
          "internalType": "uint8",
          "name": "id",
          "type": "uint8"
        },
        {
          "components": [
            {
              "internalType": "uint16",
              "name": "ltv",
              "type": "uint16"
            },
            {
              "internalType": "uint16",
              "name": "liquidationThreshold",
              "type": "uint16"
            },
            {
              "internalType": "uint16",
              "name": "liquidationBonus",
              "type": "uint16"
            },
            {
              "internalType": "address",
              "name": "priceSource",
              "type": "address"
            },
            {
              "internalType": "string",
              "name": "label",
              "type": "string"
            }
          ],
          "internalType": "struct DataTypes.EModeCategory",
          "name": "category",
          "type": "tuple"
        }
      ],
      "name": "configureEModeCategory",
      "outputs": [],
      "stateMutability": "nonpayable",
      "type": "function"
    },
    {
      "inputs": [
        {
          "internalType": "address",
          "name": "asset",
          "type": "address"
        },
        {
          "internalType": "uint256",
          "name": "amount",
          "type": "uint256"
        },
        {
          "internalType": "address",
          "name": "onBehalfOf",
          "type": "address"
        },
        {
          "internalType": "uint16",
          "name": "referralCode",
          "type": "uint16"
        }
      ],
      "name": "deposit",
      "outputs": [],
      "stateMutability": "nonpayable",
      "type": "function"
    },
    {
      "inputs": [
        {
          "internalType": "address",
          "name": "asset",
          "type": "address"
        }
      ],
      "name": "dropReserve",
      "outputs": [],
      "stateMutability": "nonpayable",
      "type": "function"
    },
    {
      "inputs": [
        {
          "internalType": "address",
          "name": "asset",
          "type": "address"
        },
        {
          "internalType": "address",
          "name": "from",
          "type": "address"
        },
        {
          "internalType": "address",
          "name": "to",
          "type": "address"
        },
        {
          "internalType": "uint256",
          "name": "amount",
          "type": "uint256"
        },
        {
          "internalType": "uint256",
          "name": "balanceFromBefore",
          "type": "uint256"
        },
        {
          "internalType": "uint256",
          "name": "balanceToBefore",
          "type": "uint256"
        }
      ],
      "name": "finalizeTransfer",
      "outputs": [],
      "stateMutability": "nonpayable",
      "type": "function"
    },
    {
      "inputs": [
        {
          "internalType": "address",
          "name": "receiverAddress",
          "type": "address"
        },
        {
          "internalType": "address[]",
          "name": "assets",
          "type": "address[]"
        },
        {
          "internalType": "uint256[]",
          "name": "amounts",
          "type": "uint256[]"
        },
        {
          "internalType": "uint256[]",
          "name": "interestRateModes",
          "type": "uint256[]"
        },
        {
          "internalType": "address",
          "name": "onBehalfOf",
          "type": "address"
        },
        {
          "internalType": "bytes",
          "name": "params",
          "type": "bytes"
        },
        {
          "internalType": "uint16",
          "name": "referralCode",
          "type": "uint16"
        }
      ],
      "name": "flashLoan",
      "outputs": [],
      "stateMutability": "nonpayable",
      "type": "function"
    },
    {
      "inputs": [
        {
          "internalType": "address",
          "name": "receiverAddress",
          "type": "address"
        },
        {
          "internalType": "address",
          "name": "asset",
          "type": "address"
        },
        {
          "internalType": "uint256",
          "name": "amount",
          "type": "uint256"
        },
        {
          "internalType": "bytes",
          "name": "params",
          "type": "bytes"
        },
        {
          "internalType": "uint16",
          "name": "referralCode",
          "type": "uint16"
        }
      ],
      "name": "flashLoanSimple",
      "outputs": [],
      "stateMutability": "nonpayable",
      "type": "function"
    },
    {
      "inputs": [
        {
          "internalType": "address",
          "name": "asset",
          "type": "address"
        }
      ],
      "name": "getConfiguration",
      "outputs": [
        {
          "components": [
            {
              "internalType": "uint256",
              "name": "data",
              "type": "uint256"
            }
          ],
          "internalType": "struct DataTypes.ReserveConfigurationMap",
          "name": "",
          "type": "tuple"
        }
      ],
      "stateMutability": "view",
      "type": "function"
    },
    {
      "inputs": [
        {
          "internalType": "uint8",
          "name": "id",
          "type": "uint8"
        }
      ],
      "name": "getEModeCategoryData",
      "outputs": [
        {
          "components": [
            {
              "internalType": "uint16",
              "name": "ltv",
              "type": "uint16"
            },
            {
              "internalType": "uint16",
              "name": "liquidationThreshold",
              "type": "uint16"
            },
            {
              "internalType": "uint16",
              "name": "liquidationBonus",
              "type": "uint16"
            },
            {
              "internalType": "address",
              "name": "priceSource",
              "type": "address"
            },
            {
              "internalType": "string",
              "name": "label",
              "type": "string"
            }
          ],
          "internalType": "struct DataTypes.EModeCategory",
          "name": "",
          "type": "tuple"
        }
      ],
      "stateMutability": "view",
      "type": "function"
    },
    {
      "inputs": [
        {
          "internalType": "uint16",
          "name": "id",
          "type": "uint16"
        }
      ],
      "name": "getReserveAddressById",
      "outputs": [
        {
          "internalType": "address",
          "name": "",
          "type": "address"
        }
      ],
      "stateMutability": "view",
      "type": "function"
    },
    {
      "inputs": [
        {
          "internalType": "address",
          "name": "asset",
          "type": "address"
        }
      ],
      "name": "getReserveData",
      "outputs": [
        {
          "components": [
            {
              "components": [
                {
                  "internalType": "uint256",
                  "name": "data",
                  "type": "uint256"
                }
              ],
              "internalType": "struct DataTypes.ReserveConfigurationMap",
              "name": "configuration",
              "type": "tuple"
            },
            {
              "internalType": "uint128",
              "name": "liquidityIndex",
              "type": "uint128"
            },
            {
              "internalType": "uint128",
              "name": "currentLiquidityRate",
              "type": "uint128"
            },
            {
              "internalType": "uint128",
              "name": "variableBorrowIndex",
              "type": "uint128"
            },
            {
              "internalType": "uint128",
              "name": "currentVariableBorrowRate",
              "type": "uint128"
            },
            {
              "internalType": "uint128",
              "name": "currentStableBorrowRate",
              "type": "uint128"
            },
            {
              "internalType": "uint40",
              "name": "lastUpdateTimestamp",
              "type": "uint40"
            },
            {
              "internalType": "uint16",
              "name": "id",
              "type": "uint16"
            },
            {
              "internalType": "address",
              "name": "aTokenAddress",
              "type": "address"
            },
            {
              "internalType": "address",
              "name": "stableDebtTokenAddress",
              "type": "address"
            },
            {
              "internalType": "address",
              "name": "variableDebtTokenAddress",
              "type": "address"
            },
            {
              "internalType": "address",
              "name": "interestRateStrategyAddress",
              "type": "address"
            },
            {
              "internalType": "uint128",
              "name": "accruedToTreasury",
              "type": "uint128"
            },
            {
              "internalType": "uint128",
              "name": "unbacked",
              "type": "uint128"
            },
            {
              "internalType": "uint128",
              "name": "isolationModeTotalDebt",
              "type": "uint128"
            }
          ],
          "internalType": "struct DataTypes.ReserveData",
          "name": "",
          "type": "tuple"
        }
      ],
      "stateMutability": "view",
      "type": "function"
    },
    {
      "inputs": [
        {
          "internalType": "address",
          "name": "asset",
          "type": "address"
        }
      ],
      "name": "getReserveNormalizedIncome",
      "outputs": [
        {
          "internalType": "uint256",
          "name": "",
          "type": "uint256"
        }
      ],
      "stateMutability": "view",
      "type": "function"
    },
    {
      "inputs": [
        {
          "internalType": "address",
          "name": "asset",
          "type": "address"
        }
      ],
      "name": "getReserveNormalizedVariableDebt",
      "outputs": [
        {
          "internalType": "uint256",
          "name": "",
          "type": "uint256"
        }
      ],
      "stateMutability": "view",
      "type": "function"
    },
    {
      "inputs": [],
      "name": "getReservesList",
      "outputs": [
        {
          "internalType": "address[]",
          "name": "",
          "type": "address[]"
        }
      ],
      "stateMutability": "view",
      "type": "function"
    },
    {
      "inputs": [
        {
          "internalType": "address",
          "name": "user",
          "type": "address"
        }
      ],
      "name": "getUserAccountData",
      "outputs": [
        {
          "internalType": "uint256",
          "name": "totalCollateralBase",
          "type": "uint256"
        },
        {
          "internalType": "uint256",
          "name": "totalDebtBase",
          "type": "uint256"
        },
        {
          "internalType": "uint256",
          "name": "availableBorrowsBase",
          "type": "uint256"
        },
        {
          "internalType": "uint256",
          "name": "currentLiquidationThreshold",
          "type": "uint256"
        },
        {
          "internalType": "uint256",
          "name": "ltv",
          "type": "uint256"
        },
        {
          "internalType": "uint256",
          "name": "healthFactor",
          "type": "uint256"
        }
      ],
      "stateMutability": "view",
      "type": "function"
    },
    {
      "inputs": [
        {
          "internalType": "address",
          "name": "user",
          "type": "address"
        }
      ],
      "name": "getUserConfiguration",
      "outputs": [
        {
          "components": [
            {
              "internalType": "uint256",
              "name": "data",
              "type": "uint256"
            }
          ],
          "internalType": "struct DataTypes.UserConfigurationMap",
          "name": "",
          "type": "tuple"
        }
      ],
      "stateMutability": "view",
      "type": "function"
    },
    {
      "inputs": [
        {
          "internalType": "address",
          "name": "user",
          "type": "address"
        }
      ],
      "name": "getUserEMode",
      "outputs": [
        {
          "internalType": "uint256",
          "name": "",
          "type": "uint256"
        }
      ],
      "stateMutability": "view",
      "type": "function"
    },
    {
      "inputs": [
        {
          "internalType": "address",
          "name": "asset",
          "type": "address"
        },
        {
          "internalType": "address",
          "name": "aTokenAddress",
          "type": "address"
        },
        {
          "internalType": "address",
          "name": "stableDebtAddress",
          "type": "address"
        },
        {
          "internalType": "address",
          "name": "variableDebtAddress",
          "type": "address"
        },
        {
          "internalType": "address",
          "name": "interestRateStrategyAddress",
          "type": "address"
        }
      ],
      "name": "initReserve",
      "outputs": [],
      "stateMutability": "nonpayable",
      "type": "function"
    },
    {
      "inputs": [
        {
          "internalType": "contract IPoolAddressesProvider",
          "name": "provider",
          "type": "address"
        }
      ],
      "name": "initialize",
      "outputs": [],
      "stateMutability": "nonpayable",
      "type": "function"
    },
    {
      "inputs": [
        {
          "internalType": "address",
          "name": "collateralAsset",
          "type": "address"
        },
        {
          "internalType": "address",
          "name": "debtAsset",
          "type": "address"
        },
        {
          "internalType": "address",
          "name": "user",
          "type": "address"
        },
        {
          "internalType": "uint256",
          "name": "debtToCover",
          "type": "uint256"
        },
        {
          "internalType": "bool",
          "name": "receiveAToken",
          "type": "bool"
        }
      ],
      "name": "liquidationCall",
      "outputs": [],
      "stateMutability": "nonpayable",
      "type": "function"
    },
    {
      "inputs": [
        {
          "internalType": "address[]",
          "name": "assets",
          "type": "address[]"
        }
      ],
      "name": "mintToTreasury",
      "outputs": [],
      "stateMutability": "nonpayable",
      "type": "function"
    },
    {
      "inputs": [
        {
          "internalType": "address",
          "name": "asset",
          "type": "address"
        },
        {
          "internalType": "uint256",
          "name": "amount",
          "type": "uint256"
        },
        {
          "internalType": "address",
          "name": "onBehalfOf",
          "type": "address"
        },
        {
          "internalType": "uint16",
          "name": "referralCode",
          "type": "uint16"
        }
      ],
      "name": "mintUnbacked",
      "outputs": [],
      "stateMutability": "nonpayable",
      "type": "function"
    },
    {
      "inputs": [
        {
          "internalType": "address",
          "name": "asset",
          "type": "address"
        },
        {
          "internalType": "address",
          "name": "user",
          "type": "address"
        }
      ],
      "name": "rebalanceStableBorrowRate",
      "outputs": [],
      "stateMutability": "nonpayable",
      "type": "function"
    },
    {
      "inputs": [
        {
          "internalType": "address",
          "name": "asset",
          "type": "address"
        },
        {
          "internalType": "uint256",
          "name": "amount",
          "type": "uint256"
        },
        {
          "internalType": "uint256",
          "name": "interestRateMode",
          "type": "uint256"
        },
        {
          "internalType": "address",
          "name": "onBehalfOf",
          "type": "address"
        }
      ],
      "name": "repay",
      "outputs": [
        {
          "internalType": "uint256",
          "name": "",
          "type": "uint256"
        }
      ],
      "stateMutability": "nonpayable",
      "type": "function"
    },
    {
      "inputs": [
        {
          "internalType": "address",
          "name": "asset",
          "type": "address"
        },
        {
          "internalType": "uint256",
          "name": "amount",
          "type": "uint256"
        },
        {
          "internalType": "uint256",
          "name": "interestRateMode",
          "type": "uint256"
        }
      ],
      "name": "repayWithATokens",
      "outputs": [
        {
          "internalType": "uint256",
          "name": "",
          "type": "uint256"
        }
      ],
      "stateMutability": "nonpayable",
      "type": "function"
    },
    {
      "inputs": [
        {
          "internalType": "address",
          "name": "asset",
          "type": "address"
        },
        {
          "internalType": "uint256",
          "name": "amount",
          "type": "uint256"
        },
        {
          "internalType": "uint256",
          "name": "interestRateMode",
          "type": "uint256"
        },
        {
          "internalType": "address",
          "name": "onBehalfOf",
          "type": "address"
        },
        {
          "internalType": "uint256",
          "name": "deadline",
          "type": "uint256"
        },
        {
          "internalType": "uint8",
          "name": "permitV",
          "type": "uint8"
        },
        {
          "internalType": "bytes32",
          "name": "permitR",
          "type": "bytes32"
        },
        {
          "internalType": "bytes32",
          "name": "permitS",
          "type": "bytes32"
        }
      ],
      "name": "repayWithPermit",
      "outputs": [
        {
          "internalType": "uint256",
          "name": "",
          "type": "uint256"
        }
      ],
      "stateMutability": "nonpayable",
      "type": "function"
    },
    {
      "inputs": [
        {
          "internalType": "address",
          "name": "token",
          "type": "address"
        },
        {
          "internalType": "address",
          "name": "to",
          "type": "address"
        },
        {
          "internalType": "uint256",
          "name": "amount",
          "type": "uint256"
        }
      ],
      "name": "rescueTokens",
      "outputs": [],
      "stateMutability": "nonpayable",
      "type": "function"
    },
    {
      "inputs": [
        {
          "internalType": "address",
          "name": "asset",
          "type": "address"
        }
      ],
      "name": "resetIsolationModeTotalDebt",
      "outputs": [],
      "stateMutability": "nonpayable",
      "type": "function"
    },
    {
      "inputs": [
        {
          "internalType": "address",
          "name": "asset",
          "type": "address"
        },
        {
          "components": [
            {
              "internalType": "uint256",
              "name": "data",
              "type": "uint256"
            }
          ],
          "internalType": "struct DataTypes.ReserveConfigurationMap",
          "name": "configuration",
          "type": "tuple"
        }
      ],
      "name": "setConfiguration",
      "outputs": [],
      "stateMutability": "nonpayable",
      "type": "function"
    },
    {
      "inputs": [
        {
          "internalType": "address",
          "name": "asset",
          "type": "address"
        },
        {
          "internalType": "address",
          "name": "rateStrategyAddress",
          "type": "address"
        }
      ],
      "name": "setReserveInterestRateStrategyAddress",
      "outputs": [],
      "stateMutability": "nonpayable",
      "type": "function"
    },
    {
      "inputs": [
        {
          "internalType": "uint8",
          "name": "categoryId",
          "type": "uint8"
        }
      ],
      "name": "setUserEMode",
      "outputs": [],
      "stateMutability": "nonpayable",
      "type": "function"
    },
    {
      "inputs": [
        {
          "internalType": "address",
          "name": "asset",
          "type": "address"
        },
        {
          "internalType": "bool",
          "name": "useAsCollateral",
          "type": "bool"
        }
      ],
      "name": "setUserUseReserveAsCollateral",
      "outputs": [],
      "stateMutability": "nonpayable",
      "type": "function"
    },
    {
      "inputs": [
        {
          "internalType": "address",
          "name": "asset",
          "type": "address"
        },
        {
          "internalType": "uint256",
          "name": "amount",
          "type": "uint256"
        },
        {
          "internalType": "address",
          "name": "onBehalfOf",
          "type": "address"
        },
        {
          "internalType": "uint16",
          "name": "referralCode",
          "type": "uint16"
        }
      ],
      "name": "supply",
      "outputs": [],
      "stateMutability": "nonpayable",
      "type": "function"
    },
    {
      "inputs": [
        {
          "internalType": "address",
          "name": "asset",
          "type": "address"
        },
        {
          "internalType": "uint256",
          "name": "amount",
          "type": "uint256"
        },
        {
          "internalType": "address",
          "name": "onBehalfOf",
          "type": "address"
        },
        {
          "internalType": "uint16",
          "name": "referralCode",
          "type": "uint16"
        },
        {
          "internalType": "uint256",
          "name": "deadline",
          "type": "uint256"
        },
        {
          "internalType": "uint8",
          "name": "permitV",
          "type": "uint8"
        },
        {
          "internalType": "bytes32",
          "name": "permitR",
          "type": "bytes32"
        },
        {
          "internalType": "bytes32",
          "name": "permitS",
          "type": "bytes32"
        }
      ],
      "name": "supplyWithPermit",
      "outputs": [],
      "stateMutability": "nonpayable",
      "type": "function"
    },
    {
      "inputs": [
        {
          "internalType": "address",
          "name": "asset",
          "type": "address"
        },
        {
          "internalType": "uint256",
          "name": "interestRateMode",
          "type": "uint256"
        }
      ],
      "name": "swapBorrowRateMode",
      "outputs": [],
      "stateMutability": "nonpayable",
      "type": "function"
    },
    {
      "inputs": [
        {
          "internalType": "uint256",
          "name": "protocolFee",
          "type": "uint256"
        }
      ],
      "name": "updateBridgeProtocolFee",
      "outputs": [],
      "stateMutability": "nonpayable",
      "type": "function"
    },
    {
      "inputs": [
        {
          "internalType": "uint128",
          "name": "flashLoanPremiumTotal",
          "type": "uint128"
        },
        {
          "internalType": "uint128",
          "name": "flashLoanPremiumToProtocol",
          "type": "uint128"
        }
      ],
      "name": "updateFlashloanPremiums",
      "outputs": [],
      "stateMutability": "nonpayable",
      "type": "function"
    },
    {
      "inputs": [
        {
          "internalType": "address",
          "name": "asset",
          "type": "address"
        },
        {
          "internalType": "uint256",
          "name": "amount",
          "type": "uint256"
        },
        {
          "internalType": "address",
          "name": "to",
          "type": "address"
        }
      ],
      "name": "withdraw",
      "outputs": [
        {
          "internalType": "uint256",
          "name": "",
          "type": "uint256"
        }
      ],
      "stateMutability": "nonpayable",
      "type": "function"
    }
  ],
  "bytecode": "0x60a0604052600080553480156200001557600080fd5b50604051620078fe380380620078fe83398181016040528101906200003b9190620000f4565b8073ffffffffffffffffffffffffffffffffffffffff1660808173ffffffffffffffffffffffffffffffffffffffff16815250505062000126565b600080fd5b600073ffffffffffffffffffffffffffffffffffffffff82169050919050565b6000620000a8826200007b565b9050919050565b6000620000bc826200009b565b9050919050565b620000ce81620000af565b8114620000da57600080fd5b50565b600081519050620000ee81620000c3565b92915050565b6000602082840312156200010d576200010c62000076565b5b60006200011d84828501620000dd565b91505092915050565b608051617753620001ab6000396000818161096f01528181610a6e01528181610cf00152818161103a01528181611b6001528181611ed3015281816126da015281816127d901528181612af301528181612b8401528181612e920152818161311d015281816138e90152818161412f0152818161433d01526144d901526177536000f3fe608060405234801561001057600080fd5b50600436106102895760003560e01c80637a708e921161015c578063d15e0053116100ce578063e82fec2f11610087578063e82fec2f146107ef578063e8eda9df1461080d578063eddf1b7914610829578063ee3e210b14610859578063f51e435b14610889578063f8119d51146108a557610289565b8063d15e00531461071d578063d1946dbc1461074d578063d579ea7d1461076b578063d5ed393314610787578063d65dc7a1146107a3578063e43e88a1146107d357610289565b8063bcb6e52211610120578063bcb6e52214610648578063bf92857c14610664578063c44b11f714610699578063c4d66de8146106c9578063cd112382146106e5578063cea9d26f1461070157610289565b80637a708e92146105bc57806394ba89a2146105d85780639cd19996146105f4578063a415bcad14610610578063ab9c4b5d1461062c57610289565b8063386497fd11610200578063617ba037116101b9578063617ba037146104ea57806363c9b8601461050657806369328dec1461052257806369a933a5146105525780636a99c0361461056e5780636c6f6ae11461058c57610289565b8063386497fd146103f257806342b0b77c146104225780634417a5831461043e578063527517971461046e578063573ade811461049e5780635a3b74b9146104ce57610289565b80631d2118f9116102525780631d2118f914610320578063272d90721461033c57806328530a471461035a5780632dad97d4146103765780633036b439146103a657806335ea6a75146103c257610289565b8062a718a91461028e5780630148170e146102aa57806302c205f0146102c85780630542975c146102e4578063074b2e4314610302575b600080fd5b6102a860048036038101906102a39190614cd9565b6108c3565b005b6102b2610b6b565b6040516102bf9190614d63565b60405180910390f35b6102e260048036038101906102dd9190614e27565b610b70565b005b6102ec610cee565b6040516102f99190614f3c565b60405180910390f35b61030a610d12565b6040516103179190614f82565b60405180910390f35b61033a60048036038101906103359190614f9d565b610d38565b005b610344610fa8565b6040516103519190614d63565b60405180910390f35b610374600480360381019061036f9190614fdd565b610fb2565b005b610390600480360381019061038b919061500a565b61113d565b60405161039d9190614d63565b60405180910390f35b6103c060048036038101906103bb919061505d565b61127f565b005b6103dc60048036038101906103d7919061508a565b611291565b6040516103e99190615264565b60405180910390f35b61040c6004803603810190610407919061508a565b6116fa565b6040516104199190614d63565b60405180910390f35b61043c600480360381019061043791906152e5565b61174a565b005b6104586004803603810190610453919061508a565b611905565b604051610465919061539b565b60405180910390f35b610488600480360381019061048391906153b6565b611968565b60405161049591906153f2565b60405180910390f35b6104b860048036038101906104b3919061540d565b6119a9565b6040516104c59190614d63565b60405180910390f35b6104e860048036038101906104e39190615474565b611aec565b005b61050460048036038101906104ff91906154b4565b611c92565b005b610520600480360381019061051b919061508a565b611d95565b005b61053c6004803603810190610537919061551b565b611e0d565b6040516105499190614d63565b60405180910390f35b61056c600480360381019061056791906154b4565b612038565b005b6105766120f9565b6040516105839190614f82565b60405180910390f35b6105a660048036038101906105a19190614fdd565b61211f565b6040516105b3919061567d565b60405180910390f35b6105d660048036038101906105d1919061569f565b61229a565b005b6105f260048036038101906105ed919061571a565b612427565b005b61060e600480360381019061060991906157b0565b612526565b005b61062a600480360381019061062591906157fd565b612596565b005b610646600480360381019061064191906158ce565b6128d6565b005b610662600480360381019061065d9190615a1e565b612d4f565b005b61067e6004803603810190610679919061508a565b612dcd565b60405161069096959493929190615a5e565b60405180910390f35b6106b360048036038101906106ae919061508a565b613002565b6040516106c09190615adb565b60405180910390f35b6106e360048036038101906106de9190615b34565b613068565b005b6106ff60048036038101906106fa9190614f9d565b6132a8565b005b61071b60048036038101906107169190615b61565b613355565b005b6107376004803603810190610732919061508a565b6133cd565b6040516107449190614d63565b60405180910390f35b61075561341d565b6040516107629190615c63565b60405180910390f35b61078560048036038101906107809190615e67565b6135ba565b005b6107a1600480360381019061079c9190615ec3565b613730565b005b6107bd60048036038101906107b8919061500a565b613a3c565b6040516107ca9190614d63565b60405180910390f35b6107ed60048036038101906107e8919061508a565b613b0f565b005b6107f7613b84565b6040516108049190614d63565b60405180910390f35b610827600480360381019061082291906154b4565b613bac565b005b610843600480360381019061083e919061508a565b613caf565b6040516108509190614d63565b60405180910390f35b610873600480360381019061086e9190615f50565b613d08565b6040516108809190614d63565b60405180910390f35b6108a3600480360381019061089e919061602a565b613ecc565b005b6108ad61410d565b6040516108ba9190616079565b60405180910390f35b73__$4ae75c1292a38b6fb7c763c6480b4a24e8$__6383c1087d6034603660356037604051806101200160405280603b60089054906101000a900461ffff1661ffff1681526020018981526020018c73ffffffffffffffffffffffffffffffffffffffff1681526020018b73ffffffffffffffffffffffffffffffffffffffff1681526020018a73ffffffffffffffffffffffffffffffffffffffff16815260200188151581526020017f000000000000000000000000000000000000000000000000000000000000000073ffffffffffffffffffffffffffffffffffffffff1663fca513a86040518163ffffffff1660e01b8152600401602060405180830381865afa1580156109d8573d6000803e3d6000fd5b505050506040513d601f19601f820116820180604052508101906109fc91906160a9565b73ffffffffffffffffffffffffffffffffffffffff168152602001603860008c73ffffffffffffffffffffffffffffffffffffffff1673ffffffffffffffffffffffffffffffffffffffff16815260200190815260200160002060009054906101000a900460ff1660ff1681526020017f000000000000000000000000000000000000000000000000000000000000000073ffffffffffffffffffffffffffffffffffffffff16635eb88d3d6040518163ffffffff1660e01b8152600401602060405180830381865afa158015610ad7573d6000803e3d6000fd5b505050506040513d601f19601f82011682018060405250810190610afb91906160a9565b73ffffffffffffffffffffffffffffffffffffffff168152506040518663ffffffff1660e01b8152600401610b349594939291906161e5565b60006040518083038186803b158015610b4c57600080fd5b505af4158015610b60573d6000803e3d6000fd5b505050505050505050565b600181565b8773ffffffffffffffffffffffffffffffffffffffff1663d505accf33308a888888886040518863ffffffff1660e01b8152600401610bb59796959493929190616257565b600060405180830381600087803b158015610bcf57600080fd5b505af1158015610be3573d6000803e3d6000fd5b5050505073__$e9229d51100a3938db7663133e6dc5ffcb$__631913f16160346036603560008b73ffffffffffffffffffffffffffffffffffffffff1673ffffffffffffffffffffffffffffffffffffffff16815260200190815260200160002060405180608001604052808e73ffffffffffffffffffffffffffffffffffffffff1681526020018d81526020018c73ffffffffffffffffffffffffffffffffffffffff1681526020018b61ffff168152506040518563ffffffff1660e01b8152600401610cb49493929190616331565b60006040518083038186803b158015610ccc57600080fd5b505af4158015610ce0573d6000803e3d6000fd5b505050505050505050505050565b7f000000000000000000000000000000000000000000000000000000000000000081565b6000603a60009054906101000a90046fffffffffffffffffffffffffffffffff16905090565b610d40614116565b600073ffffffffffffffffffffffffffffffffffffffff168273ffffffffffffffffffffffffffffffffffffffff1614156040518060400160405280600281526020017f373700000000000000000000000000000000000000000000000000000000000081525090610de8576040517f08c379a0000000000000000000000000000000000000000000000000000000008152600401610ddf91906163c0565b60405180910390fd5b506000603460008473ffffffffffffffffffffffffffffffffffffffff1673ffffffffffffffffffffffffffffffffffffffff16815260200190815260200160002060030160159054906101000a900461ffff1661ffff16141580610eab57508173ffffffffffffffffffffffffffffffffffffffff166036600080815260200190815260200160002060009054906101000a900473ffffffffffffffffffffffffffffffffffffffff1673ffffffffffffffffffffffffffffffffffffffff16145b6040518060400160405280600281526020017f383200000000000000000000000000000000000000000000000000000000000081525090610f22576040517f08c379a0000000000000000000000000000000000000000000000000000000008152600401610f1991906163c0565b60405180910390fd5b5080603460008473ffffffffffffffffffffffffffffffffffffffff1673ffffffffffffffffffffffffffffffffffffffff16815260200190815260200160002060070160006101000a81548173ffffffffffffffffffffffffffffffffffffffff021916908373ffffffffffffffffffffffffffffffffffffffff1602179055505050565b6000603954905090565b73__$5a3f4c3d06a1537986751467788655cb94$__635d5dc3136034603660376038603560003373ffffffffffffffffffffffffffffffffffffffff1673ffffffffffffffffffffffffffffffffffffffff1681526020019081526020016000206040518060600160405280603b60089054906101000a900461ffff1661ffff1681526020017f000000000000000000000000000000000000000000000000000000000000000073ffffffffffffffffffffffffffffffffffffffff1663fca513a86040518163ffffffff1660e01b8152600401602060405180830381865afa1580156110a3573d6000803e3d6000fd5b505050506040513d601f19601f820116820180604052508101906110c791906160a9565b73ffffffffffffffffffffffffffffffffffffffff1681526020018960ff168152506040518763ffffffff1660e01b815260040161110a9695949392919061642b565b60006040518083038186803b15801561112257600080fd5b505af4158015611136573d6000803e3d6000fd5b5050505050565b600073__$f250b95a8491f1e84f401ed6d1693cd837$__6340e95de660346036603560003373ffffffffffffffffffffffffffffffffffffffff1673ffffffffffffffffffffffffffffffffffffffff1681526020019081526020016000206040518060a001604052808a73ffffffffffffffffffffffffffffffffffffffff1681526020018981526020018860028111156111dc576111db61648d565b5b60028111156111ee576111ed61648d565b5b81526020013373ffffffffffffffffffffffffffffffffffffffff168152602001600115158152506040518563ffffffff1660e01b8152600401611235949392919061656c565b602060405180830381865af4158015611252573d6000803e3d6000fd5b505050506040513d601f19601f8201168201806040525081019061127691906165c7565b90509392505050565b611287614116565b8060398190555050565b611299614970565b603460008373ffffffffffffffffffffffffffffffffffffffff1673ffffffffffffffffffffffffffffffffffffffff168152602001908152602001600020604051806101e00160405290816000820160405180602001604052908160008201548152505081526020016001820160009054906101000a90046fffffffffffffffffffffffffffffffff166fffffffffffffffffffffffffffffffff166fffffffffffffffffffffffffffffffff1681526020016001820160109054906101000a90046fffffffffffffffffffffffffffffffff166fffffffffffffffffffffffffffffffff166fffffffffffffffffffffffffffffffff1681526020016002820160009054906101000a90046fffffffffffffffffffffffffffffffff166fffffffffffffffffffffffffffffffff166fffffffffffffffffffffffffffffffff1681526020016002820160109054906101000a90046fffffffffffffffffffffffffffffffff166fffffffffffffffffffffffffffffffff166fffffffffffffffffffffffffffffffff1681526020016003820160009054906101000a90046fffffffffffffffffffffffffffffffff166fffffffffffffffffffffffffffffffff166fffffffffffffffffffffffffffffffff1681526020016003820160109054906101000a900464ffffffffff1664ffffffffff1664ffffffffff1681526020016003820160159054906101000a900461ffff1661ffff1661ffff1681526020016004820160009054906101000a900473ffffffffffffffffffffffffffffffffffffffff1673ffffffffffffffffffffffffffffffffffffffff1673ffffffffffffffffffffffffffffffffffffffff1681526020016005820160009054906101000a900473ffffffffffffffffffffffffffffffffffffffff1673ffffffffffffffffffffffffffffffffffffffff1673ffffffffffffffffffffffffffffffffffffffff1681526020016006820160009054906101000a900473ffffffffffffffffffffffffffffffffffffffff1673ffffffffffffffffffffffffffffffffffffffff1673ffffffffffffffffffffffffffffffffffffffff1681526020016007820160009054906101000a900473ffffffffffffffffffffffffffffffffffffffff1673ffffffffffffffffffffffffffffffffffffffff1673ffffffffffffffffffffffffffffffffffffffff1681526020016008820160009054906101000a90046fffffffffffffffffffffffffffffffff166fffffffffffffffffffffffffffffffff166fffffffffffffffffffffffffffffffff1681526020016008820160109054906101000a90046fffffffffffffffffffffffffffffffff166fffffffffffffffffffffffffffffffff166fffffffffffffffffffffffffffffffff1681526020016009820160009054906101000a90046fffffffffffffffffffffffffffffffff166fffffffffffffffffffffffffffffffff166fffffffffffffffffffffffffffffffff16815250509050919050565b6000611743603460008473ffffffffffffffffffffffffffffffffffffffff1673ffffffffffffffffffffffffffffffffffffffff16815260200190815260200160002061424d565b9050919050565b60006040518060e001604052808873ffffffffffffffffffffffffffffffffffffffff1681526020018773ffffffffffffffffffffffffffffffffffffffff16815260200186815260200185858080601f016020809104026020016040519081016040528093929190818152602001838380828437600081840152601f19601f8201169050808301925050505050505081526020018361ffff168152602001603a60109054906101000a90046fffffffffffffffffffffffffffffffff166fffffffffffffffffffffffffffffffff168152602001603a60009054906101000a90046fffffffffffffffffffffffffffffffff166fffffffffffffffffffffffffffffffff16815250905073__$3cafd0a079d9bba6279cd462d6f4920444$__63a1fe0e8d603460008973ffffffffffffffffffffffffffffffffffffffff1673ffffffffffffffffffffffffffffffffffffffff168152602001908152602001600020836040518363ffffffff1660e01b81526004016118cc9291906166ec565b60006040518083038186803b1580156118e457600080fd5b505af41580156118f8573d6000803e3d6000fd5b5050505050505050505050565b61190d614adf565b603560008373ffffffffffffffffffffffffffffffffffffffff1673ffffffffffffffffffffffffffffffffffffffff1681526020019081526020016000206040518060200160405290816000820154815250509050919050565b6000603660008361ffff16815260200190815260200160002060009054906101000a900473ffffffffffffffffffffffffffffffffffffffff169050919050565b600073__$f250b95a8491f1e84f401ed6d1693cd837$__6340e95de660346036603560008773ffffffffffffffffffffffffffffffffffffffff1673ffffffffffffffffffffffffffffffffffffffff1681526020019081526020016000206040518060a001604052808b73ffffffffffffffffffffffffffffffffffffffff1681526020018a8152602001896002811115611a4857611a4761648d565b5b6002811115611a5a57611a5961648d565b5b81526020018873ffffffffffffffffffffffffffffffffffffffff168152602001600015158152506040518563ffffffff1660e01b8152600401611aa1949392919061656c565b602060405180830381865af4158015611abe573d6000803e3d6000fd5b505050506040513d601f19601f82011682018060405250810190611ae291906165c7565b9050949350505050565b73__$e9229d51100a3938db7663133e6dc5ffcb$__63bf697a26603460366037603560003373ffffffffffffffffffffffffffffffffffffffff1673ffffffffffffffffffffffffffffffffffffffff1681526020019081526020016000208787603b60089054906101000a900461ffff167f000000000000000000000000000000000000000000000000000000000000000073ffffffffffffffffffffffffffffffffffffffff1663fca513a86040518163ffffffff1660e01b8152600401602060405180830381865afa158015611bc9573d6000803e3d6000fd5b505050506040513d601f19601f82011682018060405250810190611bed91906160a9565b603860003373ffffffffffffffffffffffffffffffffffffffff1673ffffffffffffffffffffffffffffffffffffffff16815260200190815260200160002060009054906101000a900460ff166040518a63ffffffff1660e01b8152600401611c5e9998979695949392919061677a565b60006040518083038186803b158015611c7657600080fd5b505af4158015611c8a573d6000803e3d6000fd5b505050505050565b73__$e9229d51100a3938db7663133e6dc5ffcb$__631913f16160346036603560008773ffffffffffffffffffffffffffffffffffffffff1673ffffffffffffffffffffffffffffffffffffffff16815260200190815260200160002060405180608001604052808a73ffffffffffffffffffffffffffffffffffffffff1681526020018981526020018873ffffffffffffffffffffffffffffffffffffffff1681526020018761ffff168152506040518563ffffffff1660e01b8152600401611d5f9493929190616331565b60006040518083038186803b158015611d7757600080fd5b505af4158015611d8b573d6000803e3d6000fd5b5050505050505050565b611d9d614116565b73__$370dc613f77da7345d5cfe489611ba2a28$__639cf5702360346036846040518463ffffffff1660e01b8152600401611dda93929190616807565b60006040518083038186803b158015611df257600080fd5b505af4158015611e06573d6000803e3d6000fd5b5050505050565b600073__$e9229d51100a3938db7663133e6dc5ffcb$__63186dea44603460366037603560003373ffffffffffffffffffffffffffffffffffffffff1673ffffffffffffffffffffffffffffffffffffffff1681526020019081526020016000206040518060c001604052808b73ffffffffffffffffffffffffffffffffffffffff1681526020018a81526020018973ffffffffffffffffffffffffffffffffffffffff168152602001603b60089054906101000a900461ffff1661ffff1681526020017f000000000000000000000000000000000000000000000000000000000000000073ffffffffffffffffffffffffffffffffffffffff1663fca513a86040518163ffffffff1660e01b8152600401602060405180830381865afa158015611f3c573d6000803e3d6000fd5b505050506040513d601f19601f82011682018060405250810190611f6091906160a9565b73ffffffffffffffffffffffffffffffffffffffff168152602001603860003373ffffffffffffffffffffffffffffffffffffffff1673ffffffffffffffffffffffffffffffffffffffff16815260200190815260200160002060009054906101000a900460ff1660ff168152506040518663ffffffff1660e01b8152600401611fee9594939291906168b9565b602060405180830381865af415801561200b573d6000803e3d6000fd5b505050506040513d601f19601f8201168201806040525081019061202f91906165c7565b90509392505050565b61204061433b565b73__$d21c6b38ea0f6668c62b5e103f4ea47254$__630413c86f60346036603560008773ffffffffffffffffffffffffffffffffffffffff1673ffffffffffffffffffffffffffffffffffffffff168152602001908152602001600020888888886040518863ffffffff1660e01b81526004016120c3979695949392919061692b565b60006040518083038186803b1580156120db57600080fd5b505af41580156120ef573d6000803e3d6000fd5b5050505050505050565b6000603a60109054906101000a90046fffffffffffffffffffffffffffffffff16905090565b612127614af2565b603760008360ff1660ff1681526020019081526020016000206040518060a00160405290816000820160009054906101000a900461ffff1661ffff1661ffff1681526020016000820160029054906101000a900461ffff1661ffff1661ffff1681526020016000820160049054906101000a900461ffff1661ffff1661ffff1681526020016000820160069054906101000a900473ffffffffffffffffffffffffffffffffffffffff1673ffffffffffffffffffffffffffffffffffffffff1673ffffffffffffffffffffffffffffffffffffffff168152602001600182018054612211906169c9565b80601f016020809104026020016040519081016040528092919081815260200182805461223d906169c9565b801561228a5780601f1061225f5761010080835404028352916020019161228a565b820191906000526020600020905b81548152906001019060200180831161226d57829003601f168201915b5050505050815250509050919050565b6122a2614116565b73__$370dc613f77da7345d5cfe489611ba2a28$__6369fc1bdf603460366040518060e001604052808a73ffffffffffffffffffffffffffffffffffffffff1681526020018973ffffffffffffffffffffffffffffffffffffffff1681526020018873ffffffffffffffffffffffffffffffffffffffff1681526020018773ffffffffffffffffffffffffffffffffffffffff1681526020018673ffffffffffffffffffffffffffffffffffffffff168152602001603b60089054906101000a900461ffff1661ffff16815260200161237961410d565b61ffff168152506040518463ffffffff1660e01b815260040161239e93929190616a89565b602060405180830381865af41580156123bb573d6000803e3d6000fd5b505050506040513d601f19601f820116820180604052508101906123df9190616ad6565b1561242057603b600881819054906101000a900461ffff168092919061240490616b32565b91906101000a81548161ffff021916908361ffff160217905550505b5050505050565b73__$f250b95a8491f1e84f401ed6d1693cd837$__63eac4d703603460008573ffffffffffffffffffffffffffffffffffffffff1673ffffffffffffffffffffffffffffffffffffffff168152602001908152602001600020603560003373ffffffffffffffffffffffffffffffffffffffff1673ffffffffffffffffffffffffffffffffffffffff168152602001908152602001600020858560028111156124d3576124d261648d565b5b6040518563ffffffff1660e01b81526004016124f29493929190616b6c565b60006040518083038186803b15801561250a57600080fd5b505af415801561251e573d6000803e3d6000fd5b505050505050565b73__$370dc613f77da7345d5cfe489611ba2a28$__6348c2ca8c603484846040518463ffffffff1660e01b815260040161256293929190616c65565b60006040518083038186803b15801561257a57600080fd5b505af415801561258e573d6000803e3d6000fd5b505050505050565b73__$f250b95a8491f1e84f401ed6d1693cd837$__631e6473f9603460366037603560008773ffffffffffffffffffffffffffffffffffffffff1673ffffffffffffffffffffffffffffffffffffffff1681526020019081526020016000206040518061018001604052808c73ffffffffffffffffffffffffffffffffffffffff1681526020013373ffffffffffffffffffffffffffffffffffffffff1681526020018873ffffffffffffffffffffffffffffffffffffffff1681526020018b81526020018a600281111561266e5761266d61648d565b5b60028111156126805761267f61648d565b5b81526020018961ffff168152602001600115158152602001603b60009054906101000a900467ffffffffffffffff1667ffffffffffffffff168152602001603b60089054906101000a900461ffff1661ffff1681526020017f000000000000000000000000000000000000000000000000000000000000000073ffffffffffffffffffffffffffffffffffffffff1663fca513a86040518163ffffffff1660e01b8152600401602060405180830381865afa158015612743573d6000803e3d6000fd5b505050506040513d601f19601f8201168201806040525081019061276791906160a9565b73ffffffffffffffffffffffffffffffffffffffff168152602001603860008a73ffffffffffffffffffffffffffffffffffffffff1673ffffffffffffffffffffffffffffffffffffffff16815260200190815260200160002060009054906101000a900460ff1660ff1681526020017f000000000000000000000000000000000000000000000000000000000000000073ffffffffffffffffffffffffffffffffffffffff16635eb88d3d6040518163ffffffff1660e01b8152600401602060405180830381865afa158015612842573d6000803e3d6000fd5b505050506040513d601f19601f8201168201806040525081019061286691906160a9565b73ffffffffffffffffffffffffffffffffffffffff168152506040518663ffffffff1660e01b815260040161289f959493929190616d8d565b60006040518083038186803b1580156128b757600080fd5b505af41580156128cb573d6000803e3d6000fd5b505050505050505050565b6000604051806101c001604052808d73ffffffffffffffffffffffffffffffffffffffff1681526020018c8c80806020026020016040519081016040528093929190818152602001838360200280828437600081840152601f19601f8201169050808301925050505050505081526020018a8a80806020026020016040519081016040528093929190818152602001838360200280828437600081840152601f19601f820116905080830192505050505050508152602001888880806020026020016040519081016040528093929190818152602001838360200280828437600081840152601f19601f8201169050808301925050505050505081526020018673ffffffffffffffffffffffffffffffffffffffff16815260200185858080601f016020809104026020016040519081016040528093929190818152602001838380828437600081840152601f19601f8201169050808301925050505050505081526020018361ffff168152602001603a60109054906101000a90046fffffffffffffffffffffffffffffffff166fffffffffffffffffffffffffffffffff168152602001603a60009054906101000a90046fffffffffffffffffffffffffffffffff166fffffffffffffffffffffffffffffffff168152602001603b60009054906101000a900467ffffffffffffffff1667ffffffffffffffff168152602001603b60089054906101000a900461ffff1661ffff1681526020017f000000000000000000000000000000000000000000000000000000000000000073ffffffffffffffffffffffffffffffffffffffff168152602001603860008873ffffffffffffffffffffffffffffffffffffffff1673ffffffffffffffffffffffffffffffffffffffff16815260200190815260200160002060009054906101000a900460ff1660ff1681526020017f000000000000000000000000000000000000000000000000000000000000000073ffffffffffffffffffffffffffffffffffffffff1663707cd7166040518163ffffffff1660e01b8152600401602060405180830381865afa158015612bed573d6000803e3d6000fd5b505050506040513d601f19601f82011682018060405250810190612c1191906160a9565b73ffffffffffffffffffffffffffffffffffffffff1663fa50f297336040518263ffffffff1660e01b8152600401612c4991906153f2565b602060405180830381865afa158015612c66573d6000803e3d6000fd5b505050506040513d601f19601f82011682018060405250810190612c8a9190616ad6565b1515815250905073__$3cafd0a079d9bba6279cd462d6f4920444$__632e7263ea603460366037603560008b73ffffffffffffffffffffffffffffffffffffffff1673ffffffffffffffffffffffffffffffffffffffff168152602001908152602001600020866040518663ffffffff1660e01b8152600401612d11959493929190617042565b60006040518083038186803b158015612d2957600080fd5b505af4158015612d3d573d6000803e3d6000fd5b50505050505050505050505050505050565b612d57614116565b81603a60006101000a8154816fffffffffffffffffffffffffffffffff02191690836fffffffffffffffffffffffffffffffff16021790555080603a60106101000a8154816fffffffffffffffffffffffffffffffff02191690836fffffffffffffffffffffffffffffffff1602179055505050565b60008060008060008073__$370dc613f77da7345d5cfe489611ba2a28$__6326ec273f6034603660376040518060a00160405280603560008f73ffffffffffffffffffffffffffffffffffffffff1673ffffffffffffffffffffffffffffffffffffffff1681526020019081526020016000206040518060200160405290816000820154815250508152602001603b60089054906101000a900461ffff1661ffff1681526020018d73ffffffffffffffffffffffffffffffffffffffff1681526020017f000000000000000000000000000000000000000000000000000000000000000073ffffffffffffffffffffffffffffffffffffffff1663fca513a86040518163ffffffff1660e01b8152600401602060405180830381865afa158015612efb573d6000803e3d6000fd5b505050506040513d601f19601f82011682018060405250810190612f1f91906160a9565b73ffffffffffffffffffffffffffffffffffffffff168152602001603860008f73ffffffffffffffffffffffffffffffffffffffff1673ffffffffffffffffffffffffffffffffffffffff16815260200190815260200160002060009054906101000a900460ff1660ff168152506040518563ffffffff1660e01b8152600401612fac9493929190617120565b60c060405180830381865af4158015612fc9573d6000803e3d6000fd5b505050506040513d601f19601f82011682018060405250810190612fed9190617166565b95509550955095509550955091939550919395565b61300a614b43565b603460008373ffffffffffffffffffffffffffffffffffffffff1673ffffffffffffffffffffffffffffffffffffffff1681526020019081526020016000206000016040518060200160405290816000820154815250509050919050565b60006130726144bd565b9050600160009054906101000a900460ff168061309357506130926144c6565b5b8061309f575060005481115b6130de576040517f08c379a00000000000000000000000000000000000000000000000000000000081526004016130d590617265565b60405180910390fd5b6000600160009054906101000a900460ff16159050801561311b5760018060006101000a81548160ff021916908315150217905550816000819055505b7f000000000000000000000000000000000000000000000000000000000000000073ffffffffffffffffffffffffffffffffffffffff168373ffffffffffffffffffffffffffffffffffffffff16146040518060400160405280600281526020017f3132000000000000000000000000000000000000000000000000000000000000815250906131e1576040517f08c379a00000000000000000000000000000000000000000000000000000000081526004016131d891906163c0565b60405180910390fd5b506109c4603b60006101000a81548167ffffffffffffffff021916908367ffffffffffffffff1602179055506009603a60006101000a8154816fffffffffffffffffffffffffffffffff02191690836fffffffffffffffffffffffffffffffff1602179055506000603a60106101000a8154816fffffffffffffffffffffffffffffffff02191690836fffffffffffffffffffffffffffffffff16021790555080156132a3576000600160006101000a81548160ff0219169083151502179055505b505050565b73__$f250b95a8491f1e84f401ed6d1693cd837$__636973f744603460008573ffffffffffffffffffffffffffffffffffffffff1673ffffffffffffffffffffffffffffffffffffffff16815260200190815260200160002084846040518463ffffffff1660e01b815260040161332193929190617285565b60006040518083038186803b15801561333957600080fd5b505af415801561334d573d6000803e3d6000fd5b505050505050565b61335d6144d7565b73__$370dc613f77da7345d5cfe489611ba2a28$__6387b322b28484846040518463ffffffff1660e01b8152600401613398939291906172bc565b60006040518083038186803b1580156133b057600080fd5b505af41580156133c4573d6000803e3d6000fd5b50505050505050565b6000613416603460008473ffffffffffffffffffffffffffffffffffffffff1673ffffffffffffffffffffffffffffffffffffffff168152602001908152602001600020614659565b9050919050565b60606000603b60089054906101000a900461ffff1661ffff1690506000808267ffffffffffffffff81111561345557613454615c8a565b5b6040519080825280602002602001820160405280156134835781602001602082028036833780820191505090505b50905060005b838110156135ab57600073ffffffffffffffffffffffffffffffffffffffff166036600083815260200190815260200160002060009054906101000a900473ffffffffffffffffffffffffffffffffffffffff1673ffffffffffffffffffffffffffffffffffffffff1614613589576036600082815260200190815260200160002060009054906101000a900473ffffffffffffffffffffffffffffffffffffffff1682848361353991906172f3565b8151811061354a57613549617327565b5b602002602001019073ffffffffffffffffffffffffffffffffffffffff16908173ffffffffffffffffffffffffffffffffffffffff1681525050613598565b828061359490617356565b9350505b80806135a390617356565b915050613489565b50818303815280935050505090565b6135c2614116565b60008260ff1614156040518060400160405280600281526020017f313600000000000000000000000000000000000000000000000000000000000081525090613641576040517f08c379a000000000000000000000000000000000000000000000000000000000815260040161363891906163c0565b60405180910390fd5b5080603760008460ff1660ff16815260200190815260200160002060008201518160000160006101000a81548161ffff021916908361ffff16021790555060208201518160000160026101000a81548161ffff021916908361ffff16021790555060408201518160000160046101000a81548161ffff021916908361ffff16021790555060608201518160000160066101000a81548173ffffffffffffffffffffffffffffffffffffffff021916908373ffffffffffffffffffffffffffffffffffffffff1602179055506080820151816001019080519060200190613728929190614b56565b509050505050565b603460008773ffffffffffffffffffffffffffffffffffffffff1673ffffffffffffffffffffffffffffffffffffffff16815260200190815260200160002060040160009054906101000a900473ffffffffffffffffffffffffffffffffffffffff1673ffffffffffffffffffffffffffffffffffffffff163373ffffffffffffffffffffffffffffffffffffffff16146040518060400160405280600281526020017f313100000000000000000000000000000000000000000000000000000000000081525090613838576040517f08c379a000000000000000000000000000000000000000000000000000000000815260040161382f91906163c0565b60405180910390fd5b5073__$e9229d51100a3938db7663133e6dc5ffcb$__638a5dadd160346036603760356040518061012001604052808d73ffffffffffffffffffffffffffffffffffffffff1681526020018c73ffffffffffffffffffffffffffffffffffffffff1681526020018b73ffffffffffffffffffffffffffffffffffffffff1681526020018a8152602001898152602001888152602001603b60089054906101000a900461ffff1661ffff1681526020017f000000000000000000000000000000000000000000000000000000000000000073ffffffffffffffffffffffffffffffffffffffff1663fca513a86040518163ffffffff1660e01b8152600401602060405180830381865afa158015613952573d6000803e3d6000fd5b505050506040513d601f19601f8201168201806040525081019061397691906160a9565b73ffffffffffffffffffffffffffffffffffffffff168152602001603860008e73ffffffffffffffffffffffffffffffffffffffff1673ffffffffffffffffffffffffffffffffffffffff16815260200190815260200160002060009054906101000a900460ff1660ff168152506040518663ffffffff1660e01b8152600401613a04959493929190617456565b60006040518083038186803b158015613a1c57600080fd5b505af4158015613a30573d6000803e3d6000fd5b50505050505050505050565b6000613a4661433b565b73__$d21c6b38ea0f6668c62b5e103f4ea47254$__638e743248603460008773ffffffffffffffffffffffffffffffffffffffff1673ffffffffffffffffffffffffffffffffffffffff1681526020019081526020016000208686866039546040518663ffffffff1660e01b8152600401613ac59594939291906174aa565b602060405180830381865af4158015613ae2573d6000803e3d6000fd5b505050506040513d601f19601f82011682018060405250810190613b0691906165c7565b90509392505050565b613b17614116565b73__$370dc613f77da7345d5cfe489611ba2a28$__631e3b41456034836040518363ffffffff1660e01b8152600401613b519291906174fd565b60006040518083038186803b158015613b6957600080fd5b505af4158015613b7d573d6000803e3d6000fd5b5050505050565b6000603b60009054906101000a900467ffffffffffffffff1667ffffffffffffffff16905090565b73__$e9229d51100a3938db7663133e6dc5ffcb$__631913f16160346036603560008773ffffffffffffffffffffffffffffffffffffffff1673ffffffffffffffffffffffffffffffffffffffff16815260200190815260200160002060405180608001604052808a73ffffffffffffffffffffffffffffffffffffffff1681526020018981526020018873ffffffffffffffffffffffffffffffffffffffff1681526020018761ffff168152506040518563ffffffff1660e01b8152600401613c799493929190616331565b60006040518083038186803b158015613c9157600080fd5b505af4158015613ca5573d6000803e3d6000fd5b5050505050505050565b6000603860008373ffffffffffffffffffffffffffffffffffffffff1673ffffffffffffffffffffffffffffffffffffffff16815260200190815260200160002060009054906101000a900460ff1660ff169050919050565b60008873ffffffffffffffffffffffffffffffffffffffff1663d505accf33308b898989896040518863ffffffff1660e01b8152600401613d4f9796959493929190616257565b600060405180830381600087803b158015613d6957600080fd5b505af1158015613d7d573d6000803e3d6000fd5b5050505060006040518060a001604052808b73ffffffffffffffffffffffffffffffffffffffff1681526020018a8152602001896002811115613dc357613dc261648d565b5b6002811115613dd557613dd461648d565b5b81526020018873ffffffffffffffffffffffffffffffffffffffff16815260200160001515815250905073__$f250b95a8491f1e84f401ed6d1693cd837$__6340e95de660346036603560008c73ffffffffffffffffffffffffffffffffffffffff1673ffffffffffffffffffffffffffffffffffffffff168152602001908152602001600020856040518563ffffffff1660e01b8152600401613e7c949392919061656c565b602060405180830381865af4158015613e99573d6000803e3d6000fd5b505050506040513d601f19601f82011682018060405250810190613ebd91906165c7565b91505098975050505050505050565b613ed4614116565b600073ffffffffffffffffffffffffffffffffffffffff168273ffffffffffffffffffffffffffffffffffffffff1614156040518060400160405280600281526020017f373700000000000000000000000000000000000000000000000000000000000081525090613f7c576040517f08c379a0000000000000000000000000000000000000000000000000000000008152600401613f7391906163c0565b60405180910390fd5b506000603460008473ffffffffffffffffffffffffffffffffffffffff1673ffffffffffffffffffffffffffffffffffffffff16815260200190815260200160002060030160159054906101000a900461ffff1661ffff1614158061403f57508173ffffffffffffffffffffffffffffffffffffffff166036600080815260200190815260200160002060009054906101000a900473ffffffffffffffffffffffffffffffffffffffff1673ffffffffffffffffffffffffffffffffffffffff16145b6040518060400160405280600281526020017f3832000000000000000000000000000000000000000000000000000000000000815250906140b6576040517f08c379a00000000000000000000000000000000000000000000000000000000081526004016140ad91906163c0565b60405180910390fd5b5080603460008473ffffffffffffffffffffffffffffffffffffffff1673ffffffffffffffffffffffffffffffffffffffff168152602001908152602001600020600001818161410691906175ff565b9050505050565b60006080905090565b3373ffffffffffffffffffffffffffffffffffffffff167f000000000000000000000000000000000000000000000000000000000000000073ffffffffffffffffffffffffffffffffffffffff1663631adfca6040518163ffffffff1660e01b8152600401602060405180830381865afa158015614198573d6000803e3d6000fd5b505050506040513d601f19601f820116820180604052508101906141bc91906160a9565b73ffffffffffffffffffffffffffffffffffffffff16146040518060400160405280600281526020017f31300000000000000000000000000000000000000000000000000000000000008152509061424a576040517f08c379a000000000000000000000000000000000000000000000000000000000815260040161424191906163c0565b60405180910390fd5b50565b6000808260030160109054906101000a900464ffffffffff169050428164ffffffffff1614156142b2578260020160009054906101000a90046fffffffffffffffffffffffffffffffff166fffffffffffffffffffffffffffffffff16915050614336565b6143328360020160009054906101000a90046fffffffffffffffffffffffffffffffff166fffffffffffffffffffffffffffffffff166143248560020160109054906101000a90046fffffffffffffffffffffffffffffffff166fffffffffffffffffffffffffffffffff1684614747565b61475c90919063ffffffff16565b9150505b919050565b7f000000000000000000000000000000000000000000000000000000000000000073ffffffffffffffffffffffffffffffffffffffff1663707cd7166040518163ffffffff1660e01b8152600401602060405180830381865afa1580156143a6573d6000803e3d6000fd5b505050506040513d601f19601f820116820180604052508101906143ca91906160a9565b73ffffffffffffffffffffffffffffffffffffffff1663726600ce336040518263ffffffff1660e01b815260040161440291906153f2565b602060405180830381865afa15801561441f573d6000803e3d6000fd5b505050506040513d601f19601f820116820180604052508101906144439190616ad6565b6040518060400160405280600181526020017f3600000000000000000000000000000000000000000000000000000000000000815250906144ba576040517f08c379a00000000000000000000000000000000000000000000000000000000081526004016144b191906163c0565b60405180910390fd5b50565b60006001905090565b600080303b90506000811491505090565b7f000000000000000000000000000000000000000000000000000000000000000073ffffffffffffffffffffffffffffffffffffffff1663707cd7166040518163ffffffff1660e01b8152600401602060405180830381865afa158015614542573d6000803e3d6000fd5b505050506040513d601f19601f8201168201806040525081019061456691906160a9565b73ffffffffffffffffffffffffffffffffffffffff16637be53ca1336040518263ffffffff1660e01b815260040161459e91906153f2565b602060405180830381865afa1580156145bb573d6000803e3d6000fd5b505050506040513d601f19601f820116820180604052508101906145df9190616ad6565b6040518060400160405280600181526020017f310000000000000000000000000000000000000000000000000000000000000081525090614656576040517f08c379a000000000000000000000000000000000000000000000000000000000815260040161464d91906163c0565b60405180910390fd5b50565b6000808260030160109054906101000a900464ffffffffff169050428164ffffffffff1614156146be578260010160009054906101000a90046fffffffffffffffffffffffffffffffff166fffffffffffffffffffffffffffffffff16915050614742565b61473e8360010160009054906101000a90046fffffffffffffffffffffffffffffffff166fffffffffffffffffffffffffffffffff166147308560010160109054906101000a90046fffffffffffffffffffffffffffffffff166fffffffffffffffffffffffffffffffff16846147a7565b61475c90919063ffffffff16565b9150505b919050565b6000614754838342614802565b905092915050565b6000816b019d971e4fe8401e74000000600019030483111582151761478057600080fd5b6b033b2e3c9fd0803ce80000006b019d971e4fe8401e740000008385020104905092915050565b6000808264ffffffffff16426147bd91906172f3565b846147c8919061760d565b90506301e1338081816147de576147dd617667565b5b049050806b033b2e3c9fd0803ce80000006147f99190617696565b91505092915050565b6000808364ffffffffff168361481891906172f3565b90506000811415614838576b033b2e3c9fd0803ce8000000915050614969565b60008060008060018503935060028511614853576000614858565b600285035b92506301e1338080026148748a8b61475c90919063ffffffff16565b8161488257614881617667565b5b0491506301e1338061489d8a8461475c90919063ffffffff16565b816148ab576148aa617667565b5b04905060008285876148bd919061760d565b6148c7919061760d565b9050600281816148da576148d9617667565b5b0490506000828587896148ed919061760d565b6148f7919061760d565b614901919061760d565b90506006818161491457614913617667565b5b04905080826301e13380898e61492a919061760d565b61493491906176ec565b6b033b2e3c9fd0803ce800000061494b9190617696565b6149559190617696565b61495f9190617696565b9750505050505050505b9392505050565b604051806101e00160405280614984614b43565b815260200160006fffffffffffffffffffffffffffffffff16815260200160006fffffffffffffffffffffffffffffffff16815260200160006fffffffffffffffffffffffffffffffff16815260200160006fffffffffffffffffffffffffffffffff16815260200160006fffffffffffffffffffffffffffffffff168152602001600064ffffffffff168152602001600061ffff168152602001600073ffffffffffffffffffffffffffffffffffffffff168152602001600073ffffffffffffffffffffffffffffffffffffffff168152602001600073ffffffffffffffffffffffffffffffffffffffff168152602001600073ffffffffffffffffffffffffffffffffffffffff16815260200160006fffffffffffffffffffffffffffffffff16815260200160006fffffffffffffffffffffffffffffffff16815260200160006fffffffffffffffffffffffffffffffff1681525090565b6040518060200160405280600081525090565b6040518060a00160405280600061ffff168152602001600061ffff168152602001600061ffff168152602001600073ffffffffffffffffffffffffffffffffffffffff168152602001606081525090565b6040518060200160405280600081525090565b828054614b62906169c9565b90600052602060002090601f016020900481019282614b845760008555614bcb565b82601f10614b9d57805160ff1916838001178555614bcb565b82800160010185558215614bcb579182015b82811115614bca578251825591602001919060010190614baf565b5b509050614bd89190614bdc565b5090565b5b80821115614bf5576000816000905550600101614bdd565b5090565b6000604051905090565b600080fd5b600080fd5b600073ffffffffffffffffffffffffffffffffffffffff82169050919050565b6000614c3882614c0d565b9050919050565b614c4881614c2d565b8114614c5357600080fd5b50565b600081359050614c6581614c3f565b92915050565b6000819050919050565b614c7e81614c6b565b8114614c8957600080fd5b50565b600081359050614c9b81614c75565b92915050565b60008115159050919050565b614cb681614ca1565b8114614cc157600080fd5b50565b600081359050614cd381614cad565b92915050565b600080600080600060a08688031215614cf557614cf4614c03565b5b6000614d0388828901614c56565b9550506020614d1488828901614c56565b9450506040614d2588828901614c56565b9350506060614d3688828901614c8c565b9250506080614d4788828901614cc4565b9150509295509295909350565b614d5d81614c6b565b82525050565b6000602082019050614d786000830184614d54565b92915050565b600061ffff82169050919050565b614d9581614d7e565b8114614da057600080fd5b50565b600081359050614db281614d8c565b92915050565b600060ff82169050919050565b614dce81614db8565b8114614dd957600080fd5b50565b600081359050614deb81614dc5565b92915050565b6000819050919050565b614e0481614df1565b8114614e0f57600080fd5b50565b600081359050614e2181614dfb565b92915050565b600080600080600080600080610100898b031215614e4857614e47614c03565b5b6000614e568b828c01614c56565b9850506020614e678b828c01614c8c565b9750506040614e788b828c01614c56565b9650506060614e898b828c01614da3565b9550506080614e9a8b828c01614c8c565b94505060a0614eab8b828c01614ddc565b93505060c0614ebc8b828c01614e12565b92505060e0614ecd8b828c01614e12565b9150509295985092959890939650565b6000819050919050565b6000614f02614efd614ef884614c0d565b614edd565b614c0d565b9050919050565b6000614f1482614ee7565b9050919050565b6000614f2682614f09565b9050919050565b614f3681614f1b565b82525050565b6000602082019050614f516000830184614f2d565b92915050565b60006fffffffffffffffffffffffffffffffff82169050919050565b614f7c81614f57565b82525050565b6000602082019050614f976000830184614f73565b92915050565b60008060408385031215614fb457614fb3614c03565b5b6000614fc285828601614c56565b9250506020614fd385828601614c56565b9150509250929050565b600060208284031215614ff357614ff2614c03565b5b600061500184828501614ddc565b91505092915050565b60008060006060848603121561502357615022614c03565b5b600061503186828701614c56565b935050602061504286828701614c8c565b925050604061505386828701614c8c565b9150509250925092565b60006020828403121561507357615072614c03565b5b600061508184828501614c8c565b91505092915050565b6000602082840312156150a05761509f614c03565b5b60006150ae84828501614c56565b91505092915050565b6150c081614c6b565b82525050565b6020820160008201516150dc60008501826150b7565b50505050565b6150eb81614f57565b82525050565b600064ffffffffff82169050919050565b61510b816150f1565b82525050565b61511a81614d7e565b82525050565b61512981614c2d565b82525050565b6101e08201600082015161514660008501826150c6565b50602082015161515960208501826150e2565b50604082015161516c60408501826150e2565b50606082015161517f60608501826150e2565b50608082015161519260808501826150e2565b5060a08201516151a560a08501826150e2565b5060c08201516151b860c0850182615102565b5060e08201516151cb60e0850182615111565b506101008201516151e0610100850182615120565b506101208201516151f5610120850182615120565b5061014082015161520a610140850182615120565b5061016082015161521f610160850182615120565b506101808201516152346101808501826150e2565b506101a08201516152496101a08501826150e2565b506101c082015161525e6101c08501826150e2565b50505050565b60006101e08201905061527a600083018461512f565b92915050565b600080fd5b600080fd5b600080fd5b60008083601f8401126152a5576152a4615280565b5b8235905067ffffffffffffffff8111156152c2576152c1615285565b5b6020830191508360018202830111156152de576152dd61528a565b5b9250929050565b60008060008060008060a0878903121561530257615301614c03565b5b600061531089828a01614c56565b965050602061532189828a01614c56565b955050604061533289828a01614c8c565b945050606087013567ffffffffffffffff81111561535357615352614c08565b5b61535f89828a0161528f565b9350935050608061537289828a01614da3565b9150509295509295509295565b60208201600082015161539560008501826150b7565b50505050565b60006020820190506153b0600083018461537f565b92915050565b6000602082840312156153cc576153cb614c03565b5b60006153da84828501614da3565b91505092915050565b6153ec81614c2d565b82525050565b600060208201905061540760008301846153e3565b92915050565b6000806000806080858703121561542757615426614c03565b5b600061543587828801614c56565b945050602061544687828801614c8c565b935050604061545787828801614c8c565b925050606061546887828801614c56565b91505092959194509250565b6000806040838503121561548b5761548a614c03565b5b600061549985828601614c56565b92505060206154aa85828601614cc4565b9150509250929050565b600080600080608085870312156154ce576154cd614c03565b5b60006154dc87828801614c56565b94505060206154ed87828801614c8c565b93505060406154fe87828801614c56565b925050606061550f87828801614da3565b91505092959194509250565b60008060006060848603121561553457615533614c03565b5b600061554286828701614c56565b935050602061555386828701614c8c565b925050604061556486828701614c56565b9150509250925092565b600081519050919050565b600082825260208201905092915050565b60005b838110156155a857808201518184015260208101905061558d565b838111156155b7576000848401525b50505050565b6000601f19601f8301169050919050565b60006155d98261556e565b6155e38185615579565b93506155f381856020860161558a565b6155fc816155bd565b840191505092915050565b600060a08301600083015161561f6000860182615111565b5060208301516156326020860182615111565b5060408301516156456040860182615111565b5060608301516156586060860182615120565b506080830151848203608086015261567082826155ce565b9150508091505092915050565b600060208201905081810360008301526156978184615607565b905092915050565b600080600080600060a086880312156156bb576156ba614c03565b5b60006156c988828901614c56565b95505060206156da88828901614c56565b94505060406156eb88828901614c56565b93505060606156fc88828901614c56565b925050608061570d88828901614c56565b9150509295509295909350565b6000806040838503121561573157615730614c03565b5b600061573f85828601614c56565b925050602061575085828601614c8c565b9150509250929050565b60008083601f8401126157705761576f615280565b5b8235905067ffffffffffffffff81111561578d5761578c615285565b5b6020830191508360208202830111156157a9576157a861528a565b5b9250929050565b600080602083850312156157c7576157c6614c03565b5b600083013567ffffffffffffffff8111156157e5576157e4614c08565b5b6157f18582860161575a565b92509250509250929050565b600080600080600060a0868803121561581957615818614c03565b5b600061582788828901614c56565b955050602061583888828901614c8c565b945050604061584988828901614c8c565b935050606061585a88828901614da3565b925050608061586b88828901614c56565b9150509295509295909350565b60008083601f84011261588e5761588d615280565b5b8235905067ffffffffffffffff8111156158ab576158aa615285565b5b6020830191508360208202830111156158c7576158c661528a565b5b9250929050565b600080600080600080600080600080600060e08c8e0312156158f3576158f2614c03565b5b60006159018e828f01614c56565b9b505060208c013567ffffffffffffffff81111561592257615921614c08565b5b61592e8e828f0161575a565b9a509a505060408c013567ffffffffffffffff81111561595157615950614c08565b5b61595d8e828f01615878565b985098505060608c013567ffffffffffffffff8111156159805761597f614c08565b5b61598c8e828f01615878565b9650965050608061599f8e828f01614c56565b94505060a08c013567ffffffffffffffff8111156159c0576159bf614c08565b5b6159cc8e828f0161528f565b935093505060c06159df8e828f01614da3565b9150509295989b509295989b9093969950565b6159fb81614f57565b8114615a0657600080fd5b50565b600081359050615a18816159f2565b92915050565b60008060408385031215615a3557615a34614c03565b5b6000615a4385828601615a09565b9250506020615a5485828601615a09565b9150509250929050565b600060c082019050615a736000830189614d54565b615a806020830188614d54565b615a8d6040830187614d54565b615a9a6060830186614d54565b615aa76080830185614d54565b615ab460a0830184614d54565b979650505050505050565b602082016000820151615ad560008501826150b7565b50505050565b6000602082019050615af06000830184615abf565b92915050565b6000615b0182614c2d565b9050919050565b615b1181615af6565b8114615b1c57600080fd5b50565b600081359050615b2e81615b08565b92915050565b600060208284031215615b4a57615b49614c03565b5b6000615b5884828501615b1f565b91505092915050565b600080600060608486031215615b7a57615b79614c03565b5b6000615b8886828701614c56565b9350506020615b9986828701614c56565b9250506040615baa86828701614c8c565b9150509250925092565b600081519050919050565b600082825260208201905092915050565b6000819050602082019050919050565b6000615bec8383615120565b60208301905092915050565b6000602082019050919050565b6000615c1082615bb4565b615c1a8185615bbf565b9350615c2583615bd0565b8060005b83811015615c56578151615c3d8882615be0565b9750615c4883615bf8565b925050600181019050615c29565b5085935050505092915050565b60006020820190508181036000830152615c7d8184615c05565b905092915050565b600080fd5b7f4e487b7100000000000000000000000000000000000000000000000000000000600052604160045260246000fd5b615cc2826155bd565b810181811067ffffffffffffffff82111715615ce157615ce0615c8a565b5b80604052505050565b6000615cf4614bf9565b9050615d008282615cb9565b919050565b600080fd5b600080fd5b600067ffffffffffffffff821115615d2a57615d29615c8a565b5b615d33826155bd565b9050602081019050919050565b82818337600083830152505050565b6000615d62615d5d84615d0f565b615cea565b905082815260208101848484011115615d7e57615d7d615d0a565b5b615d89848285615d40565b509392505050565b600082601f830112615da657615da5615280565b5b8135615db6848260208601615d4f565b91505092915050565b600060a08284031215615dd557615dd4615c85565b5b615ddf60a0615cea565b90506000615def84828501614da3565b6000830152506020615e0384828501614da3565b6020830152506040615e1784828501614da3565b6040830152506060615e2b84828501614c56565b606083015250608082013567ffffffffffffffff811115615e4f57615e4e615d05565b5b615e5b84828501615d91565b60808301525092915050565b60008060408385031215615e7e57615e7d614c03565b5b6000615e8c85828601614ddc565b925050602083013567ffffffffffffffff811115615ead57615eac614c08565b5b615eb985828601615dbf565b9150509250929050565b60008060008060008060c08789031215615ee057615edf614c03565b5b6000615eee89828a01614c56565b9650506020615eff89828a01614c56565b9550506040615f1089828a01614c56565b9450506060615f2189828a01614c8c565b9350506080615f3289828a01614c8c565b92505060a0615f4389828a01614c8c565b9150509295509295509295565b600080600080600080600080610100898b031215615f7157615f70614c03565b5b6000615f7f8b828c01614c56565b9850506020615f908b828c01614c8c565b9750506040615fa18b828c01614c8c565b9650506060615fb28b828c01614c56565b9550506080615fc38b828c01614c8c565b94505060a0615fd48b828c01614ddc565b93505060c0615fe58b828c01614e12565b92505060e0615ff68b828c01614e12565b9150509295985092959890939650565b600080fd5b60006020828403121561602157616020616006565b5b81905092915050565b6000806040838503121561604157616040614c03565b5b600061604f85828601614c56565b92505060206160608582860161600b565b9150509250929050565b61607381614d7e565b82525050565b600060208201905061608e600083018461606a565b92915050565b6000815190506160a381614c3f565b92915050565b6000602082840312156160bf576160be614c03565b5b60006160cd84828501616094565b91505092915050565b8082525050565b8082525050565b8082525050565b8082525050565b6160fb81614c6b565b82525050565b61610a81614c2d565b82525050565b61611981614ca1565b82525050565b61612881614db8565b82525050565b6101208201600082015161614560008501826160f2565b50602082015161615860208501826160f2565b50604082015161616b6040850182616101565b50606082015161617e6060850182616101565b5060808201516161916080850182616101565b5060a08201516161a460a0850182616110565b5060c08201516161b760c0850182616101565b5060e08201516161ca60e085018261611f565b506101008201516161df610100850182616101565b50505050565b60006101a0820190506161fb60008301886160d6565b61620860208301876160dd565b61621560408301866160e4565b61622260608301856160eb565b61622f608083018461612e565b9695505050505050565b61624281614db8565b82525050565b61625181614df1565b82525050565b600060e08201905061626c600083018a6153e3565b61627960208301896153e3565b6162866040830188614d54565b6162936060830187614d54565b6162a06080830186616239565b6162ad60a0830185616248565b6162ba60c0830184616248565b98975050505050505050565b8082525050565b6162d681614d7e565b82525050565b6080820160008201516162f26000850182616101565b50602082015161630560208501826160f2565b5060408201516163186040850182616101565b50606082015161632b60608501826162cd565b50505050565b600060e08201905061634660008301876160d6565b61635360208301866160dd565b61636060408301856162c6565b61636d60608301846162dc565b95945050505050565b600082825260208201905092915050565b60006163928261556e565b61639c8185616376565b93506163ac81856020860161558a565b6163b5816155bd565b840191505092915050565b600060208201905081810360008301526163da8184616387565b905092915050565b8082525050565b6060820160008201516163ff60008501826160f2565b5060208201516164126020850182616101565b506040820151616425604085018261611f565b50505050565b60006101008201905061644160008301896160d6565b61644e60208301886160dd565b61645b60408301876160eb565b61646860608301866163e2565b61647560808301856162c6565b61648260a08301846163e9565b979650505050505050565b7f4e487b7100000000000000000000000000000000000000000000000000000000600052602160045260246000fd5b600381106164cd576164cc61648d565b5b50565b60008190506164de826164bc565b919050565b60006164ee826164d0565b9050919050565b6164fe816164e3565b82525050565b60a08201600082015161651a6000850182616101565b50602082015161652d60208501826160f2565b50604082015161654060408501826164f5565b5060608201516165536060850182616101565b5060808201516165666080850182616110565b50505050565b60006101008201905061658260008301876160d6565b61658f60208301866160dd565b61659c60408301856162c6565b6165a96060830184616504565b95945050505050565b6000815190506165c181614c75565b92915050565b6000602082840312156165dd576165dc614c03565b5b60006165eb848285016165b2565b91505092915050565b8082525050565b600081519050919050565b600082825260208201905092915050565b6000616622826165fb565b61662c8185616606565b935061663c81856020860161558a565b616645816155bd565b840191505092915050565b600060e0830160008301516166686000860182616101565b50602083015161667b6020860182616101565b50604083015161668e60408601826160f2565b50606083015184820360608601526166a68282616617565b91505060808301516166bb60808601826162cd565b5060a08301516166ce60a08601826160f2565b5060c08301516166e160c08601826160f2565b508091505092915050565b600060408201905061670160008301856165f4565b81810360208301526167138184616650565b90509392505050565b61672581614c2d565b82525050565b61673481614ca1565b82525050565b600061675561675061674b84614d7e565b614edd565b614c6b565b9050919050565b6167658161673a565b82525050565b61677481614db8565b82525050565b600061012082019050616790600083018c6160d6565b61679d602083018b6160dd565b6167aa604083018a6160eb565b6167b760608301896162c6565b6167c4608083018861671c565b6167d160a083018761672b565b6167de60c083018661675c565b6167eb60e083018561671c565b6167f961010083018461676b565b9a9950505050505050505050565b600060608201905061681c60008301866160d6565b61682960208301856160dd565b616836604083018461671c565b949350505050565b60c0820160008201516168546000850182616101565b50602082015161686760208501826160f2565b50604082015161687a6040850182616101565b50606082015161688d60608501826160f2565b5060808201516168a06080850182616101565b5060a08201516168b360a085018261611f565b50505050565b6000610140820190506168cf60008301886160d6565b6168dc60208301876160dd565b6168e960408301866160eb565b6168f660608301856162c6565b616903608083018461683e565b9695505050505050565b61691681614c6b565b82525050565b61692581614d7e565b82525050565b600060e082019050616940600083018a6160d6565b61694d60208301896160dd565b61695a60408301886162c6565b616967606083018761671c565b616974608083018661690d565b61698160a083018561671c565b61698e60c083018461691c565b98975050505050505050565b7f4e487b7100000000000000000000000000000000000000000000000000000000600052602260045260246000fd5b600060028204905060018216806169e157607f821691505b602082108114156169f5576169f461699a565b5b50919050565b60e082016000820151616a116000850182616101565b506020820151616a246020850182616101565b506040820151616a376040850182616101565b506060820151616a4a6060850182616101565b506080820151616a5d6080850182616101565b5060a0820151616a7060a08501826162cd565b5060c0820151616a8360c08501826162cd565b50505050565b600061012082019050616a9f60008301866160d6565b616aac60208301856160dd565b616ab960408301846169fb565b949350505050565b600081519050616ad081614cad565b92915050565b600060208284031215616aec57616aeb614c03565b5b6000616afa84828501616ac1565b91505092915050565b7f4e487b7100000000000000000000000000000000000000000000000000000000600052601160045260246000fd5b6000616b3d82614d7e565b915061ffff821415616b5257616b51616b03565b5b600182019050919050565b616b66816164e3565b82525050565b6000608082019050616b8160008301876165f4565b616b8e60208301866162c6565b616b9b604083018561671c565b616ba86060830184616b5d565b95945050505050565b600082825260208201905092915050565b6000819050919050565b6000616bd88383616101565b60208301905092915050565b6000616bf36020840184614c56565b905092915050565b6000602082019050919050565b6000616c148385616bb1565b9350616c1f82616bc2565b8060005b85811015616c5857616c358284616be4565b616c3f8882616bcc565b9750616c4a83616bfb565b925050600181019050616c23565b5085925050509392505050565b6000604082019050616c7a60008301866160d6565b8181036020830152616c8d818486616c08565b9050949350505050565b61018082016000820151616cae6000850182616101565b506020820151616cc16020850182616101565b506040820151616cd46040850182616101565b506060820151616ce760608501826160f2565b506080820151616cfa60808501826164f5565b5060a0820151616d0d60a08501826162cd565b5060c0820151616d2060c0850182616110565b5060e0820151616d3360e08501826160f2565b50610100820151616d486101008501826160f2565b50610120820151616d5d610120850182616101565b50610140820151616d7261014085018261611f565b50610160820151616d87610160850182616101565b50505050565b600061020082019050616da360008301886160d6565b616db060208301876160dd565b616dbd60408301866160eb565b616dca60608301856162c6565b616dd76080830184616c97565b9695505050505050565b600082825260208201905092915050565b6000616dfd82615bb4565b616e078185616de1565b9350616e1283615bd0565b8060005b83811015616e43578151616e2a8882616bcc565b9750616e3583615bf8565b925050600181019050616e16565b5085935050505092915050565b600081519050919050565b600082825260208201905092915050565b6000819050602082019050919050565b6000616e8883836160f2565b60208301905092915050565b6000602082019050919050565b6000616eac82616e50565b616eb68185616e5b565b9350616ec183616e6c565b8060005b83811015616ef2578151616ed98882616e7c565b9750616ee483616e94565b925050600181019050616ec5565b5085935050505092915050565b60006101c083016000830151616f186000860182616101565b5060208301518482036020860152616f308282616df2565b91505060408301518482036040860152616f4a8282616ea1565b91505060608301518482036060860152616f648282616ea1565b9150506080830151616f796080860182616101565b5060a083015184820360a0860152616f918282616617565b91505060c0830151616fa660c08601826162cd565b5060e0830151616fb960e08601826160f2565b50610100830151616fce6101008601826160f2565b50610120830151616fe36101208601826160f2565b50610140830151616ff86101408601826160f2565b5061016083015161700d610160860182616101565b5061018083015161702261018086018261611f565b506101a08301516170376101a0860182616110565b508091505092915050565b600060a08201905061705760008301886160d6565b61706460208301876160dd565b61707160408301866160eb565b61707e60608301856162c6565b81810360808301526170908184616eff565b90509695505050505050565b6020820160008201516170b260008501826160f2565b50505050565b60a0820160008201516170ce600085018261709c565b5060208201516170e160208501826160f2565b5060408201516170f46040850182616101565b5060608201516171076060850182616101565b50608082015161711a608085018261611f565b50505050565b60006101008201905061713660008301876160d6565b61714360208301866160dd565b61715060408301856160eb565b61715d60608301846170b8565b95945050505050565b60008060008060008060c0878903121561718357617182614c03565b5b600061719189828a016165b2565b96505060206171a289828a016165b2565b95505060406171b389828a016165b2565b94505060606171c489828a016165b2565b93505060806171d589828a016165b2565b92505060a06171e689828a016165b2565b9150509295509295509295565b7f436f6e747261637420696e7374616e63652068617320616c726561647920626560008201527f656e20696e697469616c697a6564000000000000000000000000000000000000602082015250565b600061724f602e83616376565b915061725a826171f3565b604082019050919050565b6000602082019050818103600083015261727e81617242565b9050919050565b600060608201905061729a60008301866165f4565b6172a7602083018561671c565b6172b4604083018461671c565b949350505050565b60006060820190506172d1600083018661671c565b6172de602083018561671c565b6172eb604083018461690d565b949350505050565b60006172fe82614c6b565b915061730983614c6b565b92508282101561731c5761731b616b03565b5b828203905092915050565b7f4e487b7100000000000000000000000000000000000000000000000000000000600052603260045260246000fd5b600061736182614c6b565b91507fffffffffffffffffffffffffffffffffffffffffffffffffffffffffffffffff82141561739457617393616b03565b5b600182019050919050565b610120820160008201516173b66000850182616101565b5060208201516173c96020850182616101565b5060408201516173dc6040850182616101565b5060608201516173ef60608501826160f2565b50608082015161740260808501826160f2565b5060a082015161741560a08501826160f2565b5060c082015161742860c08501826160f2565b5060e082015161743b60e0850182616101565b5061010082015161745061010085018261611f565b50505050565b60006101a08201905061746c60008301886160d6565b61747960208301876160dd565b61748660408301866160eb565b61749360608301856160e4565b6174a0608083018461739f565b9695505050505050565b600060a0820190506174bf60008301886165f4565b6174cc602083018761671c565b6174d9604083018661690d565b6174e6606083018561690d565b6174f3608083018461690d565b9695505050505050565b600060408201905061751260008301856160d6565b61751f602083018461671c565b9392505050565b6000813561753381614c75565b80915050919050565b60008160001b9050919050565b60007fffffffffffffffffffffffffffffffffffffffffffffffffffffffffffffffff6175758461753c565b9350801983169250808416831791505092915050565b60006175a66175a161759c84614c6b565b614edd565b614c6b565b9050919050565b6000819050919050565b6175c08261758b565b6175d36175cc826175ad565b8354617549565b8255505050565b6000810160008301806175ec81617526565b90506175f881846175b7565b5050505050565b61760982826175da565b5050565b600061761882614c6b565b915061762383614c6b565b9250817fffffffffffffffffffffffffffffffffffffffffffffffffffffffffffffffff048311821515161561765c5761765b616b03565b5b828202905092915050565b7f4e487b7100000000000000000000000000000000000000000000000000000000600052601260045260246000fd5b60006176a182614c6b565b91506176ac83614c6b565b9250827fffffffffffffffffffffffffffffffffffffffffffffffffffffffffffffffff038211156176e1576176e0616b03565b5b828201905092915050565b60006176f782614c6b565b915061770283614c6b565b92508261771257617711617667565b5b82820490509291505056fea264697066735822122084589c3f66c94470d4c66622794f4e56b546d5f394a0b439b29ebc9b802a11f064736f6c634300080a0033",
  "linkReferences": {
    "@aave/core-v3/contracts/protocol/libraries/logic/BorrowLogic.sol": {
      "BorrowLogic": [
        {
          "length": 20,
          "start": 4844
        },
        {
          "length": 20,
          "start": 7000
        },
        {
          "length": 20,
          "start": 9684
        },
        {
          "length": 20,
          "start": 10051
        },
        {
          "length": 20,
          "start": 13397
        },
        {
          "length": 20,
          "start": 16300
        }
      ]
    },
    "@aave/core-v3/contracts/protocol/libraries/logic/BridgeLogic.sol": {
      "BridgeLogic": [
        {
          "length": 20,
          "start": 8685
        },
        {
          "length": 20,
          "start": 15347
        }
      ]
    },
    "@aave/core-v3/contracts/protocol/libraries/logic/EModeLogic.sol": {
      "EModeLogic": [
        {
          "length": 20,
          "start": 4447
        }
      ]
    },
    "@aave/core-v3/contracts/protocol/libraries/logic/FlashLoanLogic.sol": {
      "FlashLoanLogic": [
        {
          "length": 20,
          "start": 6658
        },
        {
          "length": 20,
          "start": 11838
        }
      ]
    },
    "@aave/core-v3/contracts/protocol/libraries/logic/LiquidationLogic.sol": {
      "LiquidationLogic": [
        {
          "length": 20,
          "start": 2672
        }
      ]
    },
    "@aave/core-v3/contracts/protocol/libraries/logic/PoolLogic.sol": {
      "PoolLogic": [
        {
          "length": 20,
          "start": 8010
        },
        {
          "length": 20,
          "start": 9295
        },
        {
          "length": 20,
          "start": 9939
        },
        {
          "length": 20,
          "start": 12163
        },
        {
          "length": 20,
          "start": 13578
        },
        {
          "length": 20,
          "start": 15556
        }
      ]
    },
    "@aave/core-v3/contracts/protocol/libraries/logic/SupplyLogic.sol": {
      "SupplyLogic": [
        {
          "length": 20,
          "start": 3476
        },
        {
          "length": 20,
          "start": 7321
        },
        {
          "length": 20,
          "start": 7743
        },
        {
          "length": 20,
          "start": 8124
        },
        {
          "length": 20,
          "start": 14822
        },
        {
          "length": 20,
          "start": 15705
        }
      ]
    }
  },
  "deployedLinkReferences": {
    "@aave/core-v3/contracts/protocol/libraries/logic/BorrowLogic.sol": {
      "BorrowLogic": [
        {
          "length": 20,
          "start": 4417
        },
        {
          "length": 20,
          "start": 6573
        },
        {
          "length": 20,
          "start": 9257
        },
        {
          "length": 20,
          "start": 9624
        },
        {
          "length": 20,
          "start": 12970
        },
        {
          "length": 20,
          "start": 15873
        }
      ]
    },
    "@aave/core-v3/contracts/protocol/libraries/logic/BridgeLogic.sol": {
      "BridgeLogic": [
        {
          "length": 20,
          "start": 8258
        },
        {
          "length": 20,
          "start": 14920
        }
      ]
    },
    "@aave/core-v3/contracts/protocol/libraries/logic/EModeLogic.sol": {
      "EModeLogic": [
        {
          "length": 20,
          "start": 4020
        }
      ]
    },
    "@aave/core-v3/contracts/protocol/libraries/logic/FlashLoanLogic.sol": {
      "FlashLoanLogic": [
        {
          "length": 20,
          "start": 6231
        },
        {
          "length": 20,
          "start": 11411
        }
      ]
    },
    "@aave/core-v3/contracts/protocol/libraries/logic/LiquidationLogic.sol": {
      "LiquidationLogic": [
        {
          "length": 20,
          "start": 2245
        }
      ]
    },
    "@aave/core-v3/contracts/protocol/libraries/logic/PoolLogic.sol": {
      "PoolLogic": [
        {
          "length": 20,
          "start": 7583
        },
        {
          "length": 20,
          "start": 8868
        },
        {
          "length": 20,
          "start": 9512
        },
        {
          "length": 20,
          "start": 11736
        },
        {
          "length": 20,
          "start": 13151
        },
        {
          "length": 20,
          "start": 15129
        }
      ]
    },
    "@aave/core-v3/contracts/protocol/libraries/logic/SupplyLogic.sol": {
      "SupplyLogic": [
        {
          "length": 20,
          "start": 3049
        },
        {
          "length": 20,
          "start": 6894
        },
        {
          "length": 20,
          "start": 7316
        },
        {
          "length": 20,
          "start": 7697
        },
        {
          "length": 20,
          "start": 14395
        },
        {
          "length": 20,
          "start": 15278
        }
      ]
    }
  }
}