{
  "_format": "hh-sol-artifact-1",
  "contractName": "UiPoolDataProviderV3",
  "sourceName": "@aave/periphery-v3/contracts/misc/UiPoolDataProviderV3.sol",
  "abi": [
    {
      "inputs": [
        {
          "internalType": "contract IEACAggregatorProxy",
          "name": "_networkBaseTokenPriceInUsdProxyAggregator",
          "type": "address"
        },
        {
          "internalType": "contract IEACAggregatorProxy",
          "name": "_marketReferenceCurrencyPriceInUsdProxyAggregator",
          "type": "address"
        }
      ],
      "stateMutability": "nonpayable",
      "type": "constructor"
    },
    {
      "inputs": [],
      "name": "ETH_CURRENCY_UNIT",
      "outputs": [
        {
          "internalType": "uint256",
          "name": "",
          "type": "uint256"
        }
      ],
      "stateMutability": "view",
      "type": "function"
    },
    {
      "inputs": [],
      "name": "MKR_ADDRESS",
      "outputs": [
        {
          "internalType": "address",
          "name": "",
          "type": "address"
        }
      ],
      "stateMutability": "view",
      "type": "function"
    },
    {
      "inputs": [
        {
          "internalType": "bytes32",
          "name": "_bytes32",
          "type": "bytes32"
        }
      ],
      "name": "bytes32ToString",
      "outputs": [
        {
          "internalType": "string",
          "name": "",
          "type": "string"
        }
      ],
      "stateMutability": "pure",
      "type": "function"
    },
    {
      "inputs": [
        {
          "internalType": "contract IPoolAddressesProvider",
          "name": "provider",
          "type": "address"
        }
      ],
      "name": "getReservesData",
      "outputs": [
        {
          "components": [
            {
              "internalType": "address",
              "name": "underlyingAsset",
              "type": "address"
            },
            {
              "internalType": "string",
              "name": "name",
              "type": "string"
            },
            {
              "internalType": "string",
              "name": "symbol",
              "type": "string"
            },
            {
              "internalType": "uint256",
              "name": "decimals",
              "type": "uint256"
            },
            {
              "internalType": "uint256",
              "name": "baseLTVasCollateral",
              "type": "uint256"
            },
            {
              "internalType": "uint256",
              "name": "reserveLiquidationThreshold",
              "type": "uint256"
            },
            {
              "internalType": "uint256",
              "name": "reserveLiquidationBonus",
              "type": "uint256"
            },
            {
              "internalType": "uint256",
              "name": "reserveFactor",
              "type": "uint256"
            },
            {
              "internalType": "bool",
              "name": "usageAsCollateralEnabled",
              "type": "bool"
            },
            {
              "internalType": "bool",
              "name": "borrowingEnabled",
              "type": "bool"
            },
            {
              "internalType": "bool",
              "name": "stableBorrowRateEnabled",
              "type": "bool"
            },
            {
              "internalType": "bool",
              "name": "isActive",
              "type": "bool"
            },
            {
              "internalType": "bool",
              "name": "isFrozen",
              "type": "bool"
            },
            {
              "internalType": "uint128",
              "name": "liquidityIndex",
              "type": "uint128"
            },
            {
              "internalType": "uint128",
              "name": "variableBorrowIndex",
              "type": "uint128"
            },
            {
              "internalType": "uint128",
              "name": "liquidityRate",
              "type": "uint128"
            },
            {
              "internalType": "uint128",
              "name": "variableBorrowRate",
              "type": "uint128"
            },
            {
              "internalType": "uint128",
              "name": "stableBorrowRate",
              "type": "uint128"
            },
            {
              "internalType": "uint40",
              "name": "lastUpdateTimestamp",
              "type": "uint40"
            },
            {
              "internalType": "address",
              "name": "aTokenAddress",
              "type": "address"
            },
            {
              "internalType": "address",
              "name": "stableDebtTokenAddress",
              "type": "address"
            },
            {
              "internalType": "address",
              "name": "variableDebtTokenAddress",
              "type": "address"
            },
            {
              "internalType": "address",
              "name": "interestRateStrategyAddress",
              "type": "address"
            },
            {
              "internalType": "uint256",
              "name": "availableLiquidity",
              "type": "uint256"
            },
            {
              "internalType": "uint256",
              "name": "totalPrincipalStableDebt",
              "type": "uint256"
            },
            {
              "internalType": "uint256",
              "name": "averageStableRate",
              "type": "uint256"
            },
            {
              "internalType": "uint256",
              "name": "stableDebtLastUpdateTimestamp",
              "type": "uint256"
            },
            {
              "internalType": "uint256",
              "name": "totalScaledVariableDebt",
              "type": "uint256"
            },
            {
              "internalType": "uint256",
              "name": "priceInMarketReferenceCurrency",
              "type": "uint256"
            },
            {
              "internalType": "address",
              "name": "priceOracle",
              "type": "address"
            },
            {
              "internalType": "uint256",
              "name": "variableRateSlope1",
              "type": "uint256"
            },
            {
              "internalType": "uint256",
              "name": "variableRateSlope2",
              "type": "uint256"
            },
            {
              "internalType": "uint256",
              "name": "stableRateSlope1",
              "type": "uint256"
            },
            {
              "internalType": "uint256",
              "name": "stableRateSlope2",
              "type": "uint256"
            },
            {
              "internalType": "uint256",
              "name": "baseStableBorrowRate",
              "type": "uint256"
            },
            {
              "internalType": "uint256",
              "name": "baseVariableBorrowRate",
              "type": "uint256"
            },
            {
              "internalType": "uint256",
              "name": "optimalUsageRatio",
              "type": "uint256"
            },
            {
              "internalType": "bool",
              "name": "isPaused",
              "type": "bool"
            },
            {
              "internalType": "bool",
              "name": "isSiloedBorrowing",
              "type": "bool"
            },
            {
              "internalType": "uint128",
              "name": "accruedToTreasury",
              "type": "uint128"
            },
            {
              "internalType": "uint128",
              "name": "unbacked",
              "type": "uint128"
            },
            {
              "internalType": "uint128",
              "name": "isolationModeTotalDebt",
              "type": "uint128"
            },
            {
              "internalType": "uint256",
              "name": "debtCeiling",
              "type": "uint256"
            },
            {
              "internalType": "uint256",
              "name": "debtCeilingDecimals",
              "type": "uint256"
            },
            {
              "internalType": "uint8",
              "name": "eModeCategoryId",
              "type": "uint8"
            },
            {
              "internalType": "uint256",
              "name": "borrowCap",
              "type": "uint256"
            },
            {
              "internalType": "uint256",
              "name": "supplyCap",
              "type": "uint256"
            },
            {
              "internalType": "uint16",
              "name": "eModeLtv",
              "type": "uint16"
            },
            {
              "internalType": "uint16",
              "name": "eModeLiquidationThreshold",
              "type": "uint16"
            },
            {
              "internalType": "uint16",
              "name": "eModeLiquidationBonus",
              "type": "uint16"
            },
            {
              "internalType": "address",
              "name": "eModePriceSource",
              "type": "address"
            },
            {
              "internalType": "string",
              "name": "eModeLabel",
              "type": "string"
            },
            {
              "internalType": "bool",
              "name": "borrowableInIsolation",
              "type": "bool"
            }
          ],
          "internalType": "struct IUiPoolDataProviderV3.AggregatedReserveData[]",
          "name": "",
          "type": "tuple[]"
        },
        {
          "components": [
            {
              "internalType": "uint256",
              "name": "marketReferenceCurrencyUnit",
              "type": "uint256"
            },
            {
              "internalType": "int256",
              "name": "marketReferenceCurrencyPriceInUsd",
              "type": "int256"
            },
            {
              "internalType": "int256",
              "name": "networkBaseTokenPriceInUsd",
              "type": "int256"
            },
            {
              "internalType": "uint8",
              "name": "networkBaseTokenPriceDecimals",
              "type": "uint8"
            }
          ],
          "internalType": "struct IUiPoolDataProviderV3.BaseCurrencyInfo",
          "name": "",
          "type": "tuple"
        }
      ],
      "stateMutability": "view",
      "type": "function"
    },
    {
      "inputs": [
        {
          "internalType": "contract IPoolAddressesProvider",
          "name": "provider",
          "type": "address"
        }
      ],
      "name": "getReservesList",
      "outputs": [
        {
          "internalType": "address[]",
          "name": "",
          "type": "address[]"
        }
      ],
      "stateMutability": "view",
      "type": "function"
    },
    {
      "inputs": [
        {
          "internalType": "contract IPoolAddressesProvider",
          "name": "provider",
          "type": "address"
        },
        {
          "internalType": "address",
          "name": "user",
          "type": "address"
        }
      ],
      "name": "getUserReservesData",
      "outputs": [
        {
          "components": [
            {
              "internalType": "address",
              "name": "underlyingAsset",
              "type": "address"
            },
            {
              "internalType": "uint256",
              "name": "scaledATokenBalance",
              "type": "uint256"
            },
            {
              "internalType": "bool",
              "name": "usageAsCollateralEnabledOnUser",
              "type": "bool"
            },
            {
              "internalType": "uint256",
              "name": "stableBorrowRate",
              "type": "uint256"
            },
            {
              "internalType": "uint256",
              "name": "scaledVariableDebt",
              "type": "uint256"
            },
            {
              "internalType": "uint256",
              "name": "principalStableDebt",
              "type": "uint256"
            },
            {
              "internalType": "uint256",
              "name": "stableBorrowLastUpdateTimestamp",
              "type": "uint256"
            }
          ],
          "internalType": "struct IUiPoolDataProviderV3.UserReserveData[]",
          "name": "",
          "type": "tuple[]"
        },
        {
          "internalType": "uint8",
          "name": "",
          "type": "uint8"
        }
      ],
      "stateMutability": "view",
      "type": "function"
    },
    {
      "inputs": [],
      "name": "marketReferenceCurrencyPriceInUsdProxyAggregator",
      "outputs": [
        {
          "internalType": "contract IEACAggregatorProxy",
          "name": "",
          "type": "address"
        }
      ],
      "stateMutability": "view",
      "type": "function"
    },
    {
      "inputs": [],
      "name": "networkBaseTokenPriceInUsdProxyAggregator",
      "outputs": [
        {
          "internalType": "contract IEACAggregatorProxy",
          "name": "",
          "type": "address"
        }
      ],
      "stateMutability": "view",
      "type": "function"
    }
  ],
  "bytecode": "0x60c06040523480156200001157600080fd5b5060405162003fec38038062003fec833981810160405281019062000037919062000125565b8173ffffffffffffffffffffffffffffffffffffffff1660808173ffffffffffffffffffffffffffffffffffffffff16815250508073ffffffffffffffffffffffffffffffffffffffff1660a08173ffffffffffffffffffffffffffffffffffffffff168152505050506200016c565b600080fd5b600073ffffffffffffffffffffffffffffffffffffffff82169050919050565b6000620000d982620000ac565b9050919050565b6000620000ed82620000cc565b9050919050565b620000ff81620000e0565b81146200010b57600080fd5b50565b6000815190506200011f81620000f4565b92915050565b600080604083850312156200013f576200013e620000a7565b5b60006200014f858286016200010e565b925050602062000162858286016200010e565b9150509250929050565b60805160a051613e45620001a760003960008181610c010152611ca50152600081816101d501528181611abd0152611b550152613e456000f3fe608060405234801561001057600080fd5b50600436106100885760003560e01c8063825ffd921161005b578063825ffd921461012a5780639201de5514610148578063d22cf68a14610178578063ec489c211461019657610088565b80630496f53a1461008d5780633c1740ed146100ab57806351974cc0146100c9578063586c1442146100fa575b600080fd5b6100956101c7565b6040516100a291906128ad565b60405180910390f35b6100b36101d3565b6040516100c09190612947565b60405180910390f35b6100e360048036038101906100de91906129f2565b6101f7565b6040516100f1929190612bc4565b60405180910390f35b610114600480360381019061010f9190612bf4565b61095b565b6040516101219190612cd0565b60405180910390f35b610132610a4c565b60405161013f9190612d01565b60405180910390f35b610162600480360381019061015d9190612d52565b610a64565b60405161016f9190612e18565b60405180910390f35b610180610bff565b60405161018d9190612947565b60405180910390f35b6101b060048036038101906101ab9190612bf4565b610c23565b6040516101be92919061349a565b60405180910390f35b670de0b6b3a764000081565b7f000000000000000000000000000000000000000000000000000000000000000081565b60606000808473ffffffffffffffffffffffffffffffffffffffff1663026b1d5f6040518163ffffffff1660e01b8152600401602060405180830381865afa158015610247573d6000803e3d6000fd5b505050506040513d601f19601f8201168201806040525081019061026b91906134df565b905060008173ffffffffffffffffffffffffffffffffffffffff1663d1946dbc6040518163ffffffff1660e01b8152600401600060405180830381865afa1580156102ba573d6000803e3d6000fd5b505050506040513d6000823e3d601f19601f820116820180604052508101906102e39190613654565b905060008273ffffffffffffffffffffffffffffffffffffffff16634417a583876040518263ffffffff1660e01b81526004016103209190612d01565b602060405180830381865afa15801561033d573d6000803e3d6000fd5b505050506040513d601f19601f82011682018060405250810190610361919061370f565b905060008373ffffffffffffffffffffffffffffffffffffffff1663eddf1b79886040518263ffffffff1660e01b815260040161039e9190612d01565b602060405180830381865afa1580156103bb573d6000803e3d6000fd5b505050506040513d601f19601f820116820180604052508101906103df919061373c565b905060008073ffffffffffffffffffffffffffffffffffffffff168873ffffffffffffffffffffffffffffffffffffffff16141561041e576000610421565b83515b67ffffffffffffffff81111561043a57610439613511565b5b60405190808252806020026020018201604052801561047357816020015b610460612507565b8152602001906001900390816104585790505b50905060005b84518110156109485760008673ffffffffffffffffffffffffffffffffffffffff166335ea6a758784815181106104b3576104b2613769565b5b60200260200101516040518263ffffffff1660e01b81526004016104d79190612d01565b6101e060405180830381865afa1580156104f5573d6000803e3d6000fd5b505050506040513d601f19601f8201168201806040525081019061051991906139bc565b905085828151811061052e5761052d613769565b5b602002602001015183838151811061054957610548613769565b5b60200260200101516000019073ffffffffffffffffffffffffffffffffffffffff16908173ffffffffffffffffffffffffffffffffffffffff168152505080610100015173ffffffffffffffffffffffffffffffffffffffff16631da24f3e8b6040518263ffffffff1660e01b81526004016105c59190612d01565b602060405180830381865afa1580156105e2573d6000803e3d6000fd5b505050506040513d601f19601f82011682018060405250810190610606919061373c565b83838151811061061957610618613769565b5b6020026020010151602001818152505061063c8286611d6890919063ffffffff16565b83838151811061064f5761064e613769565b5b602002602001015160400190151590811515815250506106788286611e0790919063ffffffff16565b156109345780610140015173ffffffffffffffffffffffffffffffffffffffff16631da24f3e8b6040518263ffffffff1660e01b81526004016106bb9190612d01565b602060405180830381865afa1580156106d8573d6000803e3d6000fd5b505050506040513d601f19601f820116820180604052508101906106fc919061373c565b83838151811061070f5761070e613769565b5b6020026020010151608001818152505080610120015173ffffffffffffffffffffffffffffffffffffffff1663c634dfaa8b6040518263ffffffff1660e01b815260040161075d9190612d01565b602060405180830381865afa15801561077a573d6000803e3d6000fd5b505050506040513d601f19601f8201168201806040525081019061079e919061373c565b8383815181106107b1576107b0613769565b5b602002602001015160a001818152505060008383815181106107d6576107d5613769565b5b602002602001015160a00151146109335780610120015173ffffffffffffffffffffffffffffffffffffffff1663e78c9b3b8b6040518263ffffffff1660e01b81526004016108259190612d01565b602060405180830381865afa158015610842573d6000803e3d6000fd5b505050506040513d601f19601f82011682018060405250810190610866919061373c565b83838151811061087957610878613769565b5b6020026020010151606001818152505080610120015173ffffffffffffffffffffffffffffffffffffffff166379ce6b8c8b6040518263ffffffff1660e01b81526004016108c79190612d01565b602060405180830381865afa1580156108e4573d6000803e3d6000fd5b505050506040513d601f19601f8201168201806040525081019061090891906139ea565b64ffffffffff1683838151811061092257610921613769565b5b602002602001015160c00181815250505b5b50808061094090613a46565b915050610479565b5080829650965050505050509250929050565b606060008273ffffffffffffffffffffffffffffffffffffffff1663026b1d5f6040518163ffffffff1660e01b8152600401602060405180830381865afa1580156109aa573d6000803e3d6000fd5b505050506040513d601f19601f820116820180604052508101906109ce91906134df565b90508073ffffffffffffffffffffffffffffffffffffffff1663d1946dbc6040518163ffffffff1660e01b8152600401600060405180830381865afa158015610a1b573d6000803e3d6000fd5b505050506040513d6000823e3d601f19601f82011682018060405250810190610a449190613654565b915050919050565b739f8f72aa9304c8b593d555f12ef6589cc3a579a281565b606060005b60208160ff16108015610abb5750600060f81b838260ff1660208110610a9257610a91613769565b5b1a60f81b7effffffffffffffffffffffffffffffffffffffffffffffffffffffffffffff191614155b15610ad3578080610acb90613a8f565b915050610a69565b60008160ff1667ffffffffffffffff811115610af257610af1613511565b5b6040519080825280601f01601f191660200182016040528015610b245781602001600182028036833780820191505090505b509050600091505b60208260ff16108015610b7e5750600060f81b848360ff1660208110610b5557610b54613769565b5b1a60f81b7effffffffffffffffffffffffffffffffffffffffffffffffffffffffffffff191614155b15610bf557838260ff1660208110610b9957610b98613769565b5b1a60f81b818360ff1681518110610bb357610bb2613769565b5b60200101907effffffffffffffffffffffffffffffffffffffffffffffffffffffffffffff1916908160001a9053508180610bed90613a8f565b925050610b2c565b8092505050919050565b7f000000000000000000000000000000000000000000000000000000000000000081565b6060610c2d61255c565b60008373ffffffffffffffffffffffffffffffffffffffff1663fca513a86040518163ffffffff1660e01b8152600401602060405180830381865afa158015610c7a573d6000803e3d6000fd5b505050506040513d601f19601f82011682018060405250810190610c9e91906134df565b905060008473ffffffffffffffffffffffffffffffffffffffff1663026b1d5f6040518163ffffffff1660e01b8152600401602060405180830381865afa158015610ced573d6000803e3d6000fd5b505050506040513d601f19601f82011682018060405250810190610d1191906134df565b905060008573ffffffffffffffffffffffffffffffffffffffff1663e860accb6040518163ffffffff1660e01b8152600401602060405180830381865afa158015610d60573d6000803e3d6000fd5b505050506040513d601f19601f82011682018060405250810190610d8491906134df565b905060008273ffffffffffffffffffffffffffffffffffffffff1663d1946dbc6040518163ffffffff1660e01b8152600401600060405180830381865afa158015610dd3573d6000803e3d6000fd5b505050506040513d6000823e3d601f19601f82011682018060405250810190610dfc9190613654565b90506000815167ffffffffffffffff811115610e1b57610e1a613511565b5b604051908082528060200260200182016040528015610e5457816020015b610e41612587565b815260200190600190039081610e395790505b50905060005b8251811015611ab2576000828281518110610e7857610e77613769565b5b60200260200101519050838281518110610e9557610e94613769565b5b6020026020010151816000019073ffffffffffffffffffffffffffffffffffffffff16908173ffffffffffffffffffffffffffffffffffffffff168152505060008673ffffffffffffffffffffffffffffffffffffffff166335ea6a7583600001516040518263ffffffff1660e01b8152600401610f139190612d01565b6101e060405180830381865afa158015610f31573d6000803e3d6000fd5b505050506040513d601f19601f82011682018060405250810190610f5591906139bc565b90508060200151826101a001906fffffffffffffffffffffffffffffffff1690816fffffffffffffffffffffffffffffffff16815250508060600151826101c001906fffffffffffffffffffffffffffffffff1690816fffffffffffffffffffffffffffffffff16815250508060400151826101e001906fffffffffffffffffffffffffffffffff1690816fffffffffffffffffffffffffffffffff168152505080608001518261020001906fffffffffffffffffffffffffffffffff1690816fffffffffffffffffffffffffffffffff16815250508060a001518261022001906fffffffffffffffffffffffffffffffff1690816fffffffffffffffffffffffffffffffff16815250508060c0015182610240019064ffffffffff16908164ffffffffff168152505080610100015182610260019073ffffffffffffffffffffffffffffffffffffffff16908173ffffffffffffffffffffffffffffffffffffffff168152505080610120015182610280019073ffffffffffffffffffffffffffffffffffffffff16908173ffffffffffffffffffffffffffffffffffffffff1681525050806101400151826102a0019073ffffffffffffffffffffffffffffffffffffffff16908173ffffffffffffffffffffffffffffffffffffffff1681525050806101600151826102c0019073ffffffffffffffffffffffffffffffffffffffff16908173ffffffffffffffffffffffffffffffffffffffff16815250508773ffffffffffffffffffffffffffffffffffffffff1663b3596f0783600001516040518263ffffffff1660e01b81526004016111b49190612d01565b602060405180830381865afa1580156111d1573d6000803e3d6000fd5b505050506040513d601f19601f820116820180604052508101906111f5919061373c565b826103800181815250508773ffffffffffffffffffffffffffffffffffffffff166392bf2be083600001516040518263ffffffff1660e01b815260040161123c9190612d01565b602060405180830381865afa158015611259573d6000803e3d6000fd5b505050506040513d601f19601f8201168201806040525081019061127d91906134df565b826103a0019073ffffffffffffffffffffffffffffffffffffffff16908173ffffffffffffffffffffffffffffffffffffffff1681525050816000015173ffffffffffffffffffffffffffffffffffffffff166370a082318361026001516040518263ffffffff1660e01b81526004016112f79190612d01565b602060405180830381865afa158015611314573d6000803e3d6000fd5b505050506040513d601f19601f82011682018060405250810190611338919061373c565b826102e001818152505081610280015173ffffffffffffffffffffffffffffffffffffffff1663797743386040518163ffffffff1660e01b8152600401608060405180830381865afa158015611392573d6000803e3d6000fd5b505050506040513d601f19601f820116820180604052508101906113b69190613ab9565b9091508064ffffffffff169050846103000185610320018661034001838152508381525083815250505050816102a0015173ffffffffffffffffffffffffffffffffffffffff1663b1bf962d6040518163ffffffff1660e01b8152600401602060405180830381865afa158015611431573d6000803e3d6000fd5b505050506040513d601f19601f82011682018060405250810190611455919061373c565b82610360018181525050739f8f72aa9304c8b593d555f12ef6589cc3a579a273ffffffffffffffffffffffffffffffffffffffff16826000015173ffffffffffffffffffffffffffffffffffffffff1614156115c2576000826000015173ffffffffffffffffffffffffffffffffffffffff166395d89b416040518163ffffffff1660e01b8152600401602060405180830381865afa1580156114fc573d6000803e3d6000fd5b505050506040513d601f19601f820116820180604052508101906115209190613b35565b90506000836000015173ffffffffffffffffffffffffffffffffffffffff166306fdde036040518163ffffffff1660e01b8152600401602060405180830381865afa158015611573573d6000803e3d6000fd5b505050506040513d601f19601f820116820180604052508101906115979190613b35565b90506115a282610a64565b84604001819052506115b381610a64565b846020018190525050506116c3565b816000015173ffffffffffffffffffffffffffffffffffffffff166395d89b416040518163ffffffff1660e01b8152600401600060405180830381865afa158015611611573d6000803e3d6000fd5b505050506040513d6000823e3d601f19601f8201168201806040525081019061163a9190613c08565b8260400181905250816000015173ffffffffffffffffffffffffffffffffffffffff166306fdde036040518163ffffffff1660e01b8152600401600060405180830381865afa158015611691573d6000803e3d6000fd5b505050506040513d6000823e3d601f19601f820116820180604052508101906116ba9190613c08565b82602001819052505b60008160000151905060006116d782611ea3565b896080018a60a0018b60c0018c6060018d60e001859b5086815250868152508681525086815250868152505050505050506000846080015114158461010001901515908115158152505061172a82611fb7565b886101600189610180018a610120018b610140018c6104a0018515151515815250851515151581525085151515158152508515151515815250851515151581525050505050506000611780856102c001516120a3565b90508060000151856103c00181815250508060200151856103e00181815250508060400151856104000181815250508060600151856104200181815250508060800151856104400181815250508060a00151856104600181815250508060c00151856104800181815250508185610580019060ff16908160ff168152505061180783612404565b856105400181815250508873ffffffffffffffffffffffffffffffffffffffff166369b169e16040518163ffffffff1660e01b8152600401602060405180830381865afa15801561185c573d6000803e3d6000fd5b505050506040513d601f19601f82011682018060405250810190611880919061373c565b8561056001818152505061189383612439565b866105a001876105c001828152508281525050506118b08361249f565b856104c0019015159081151581525050836101a001518561050001906fffffffffffffffffffffffffffffffff1690816fffffffffffffffffffffffffffffffff1681525050836101c001518561052001906fffffffffffffffffffffffffffffffff1690816fffffffffffffffffffffffffffffffff1681525050836101800151856104e001906fffffffffffffffffffffffffffffffff1690816fffffffffffffffffffffffffffffffff168152505060008a73ffffffffffffffffffffffffffffffffffffffff16636c6f6ae18761058001516040518263ffffffff1660e01b81526004016119a29190613c51565b600060405180830381865afa1580156119bf573d6000803e3d6000fd5b505050506040513d6000823e3d601f19601f820116820180604052508101906119e89190613d14565b90508060000151866105e0019061ffff16908161ffff1681525050806020015186610600019061ffff16908161ffff1681525050806040015186610620019061ffff16908161ffff1681525050806060015186610640019073ffffffffffffffffffffffffffffffffffffffff16908173ffffffffffffffffffffffffffffffffffffffff16815250508060800151866106600181905250611a89846124d3565b866106800190151590811515815250505050505050508080611aaa90613a46565b915050610e5a565b50611abb61255c565b7f000000000000000000000000000000000000000000000000000000000000000073ffffffffffffffffffffffffffffffffffffffff166350d25bcd6040518163ffffffff1660e01b8152600401602060405180830381865afa158015611b26573d6000803e3d6000fd5b505050506040513d601f19601f82011682018060405250810190611b4a9190613d89565b8160400181815250507f000000000000000000000000000000000000000000000000000000000000000073ffffffffffffffffffffffffffffffffffffffff1663313ce5676040518163ffffffff1660e01b8152600401602060405180830381865afa158015611bbe573d6000803e3d6000fd5b505050506040513d601f19601f82011682018060405250810190611be29190613de2565b816060019060ff16908160ff16815250508573ffffffffffffffffffffffffffffffffffffffff16638c89b64f6040518163ffffffff1660e01b8152600401602060405180830381865afa925050508015611c5b57506040513d601f19601f82011682018060405250810190611c58919061373c565b60015b611d41573d8060008114611c8b576040519150601f19603f3d011682016040523d82523d6000602084013e611c90565b606091505b50670de0b6b3a76400008260000181815250507f000000000000000000000000000000000000000000000000000000000000000073ffffffffffffffffffffffffffffffffffffffff166350d25bcd6040518163ffffffff1660e01b8152600401602060405180830381865afa158015611d0e573d6000803e3d6000fd5b505050506040513d601f19601f82011682018060405250810190611d329190613d89565b82602001818152505050611d57565b8082600001818152505080826020018181525050505b818197509750505050505050915091565b6000608061ffff1682106040518060400160405280600281526020017f373400000000000000000000000000000000000000000000000000000000000081525090611de9576040517f08c379a0000000000000000000000000000000000000000000000000000000008152600401611de09190612e18565b60405180910390fd5b506000600180600185901b018560000151901c161415905092915050565b6000608061ffff1682106040518060400160405280600281526020017f373400000000000000000000000000000000000000000000000000000000000081525090611e88576040517f08c379a0000000000000000000000000000000000000000000000000000000008152600401611e7f9190612e18565b60405180910390fd5b50600060018084901b8560000151901c161415905092915050565b6000806000806000806000876000015190507fffffffffffffffffffffffffffffffffffffffffffffffffffffffffffff000019811660107fffffffffffffffffffffffffffffffffffffffffffffffffffffffff0000ffff198316901c60207fffffffffffffffffffffffffffffffffffffffffffffffffffff0000ffffffff198416901c60307fffffffffffffffffffffffffffffffffffffffffffffffffff00ffffffffffff198516901c60407fffffffffffffffffffffffffffffffffffffffffffff0000ffffffffffffffff198616901c60a87fffffffffffffffffffff00ffffffffffffffffffffffffffffffffffffffffff198716901c9650965096509650965096505091939550919395565b6000806000806000808660000151905060007ffffffffffffffffffffffffffffffffffffffffffffffffffeffffffffffffff198216141560007ffffffffffffffffffffffffffffffffffffffffffffffffffdffffffffffffff198316141560007ffffffffffffffffffffffffffffffffffffffffffffffffffbffffffffffffff198416141560007ffffffffffffffffffffffffffffffffffffffffffffffffff7ffffffffffffff198516141560007fffffffffffffffffffffffffffffffffffffffffffffffffefffffffffffffff1986161415955095509550955095505091939590929450565b6120ab612857565b6120b3612857565b8273ffffffffffffffffffffffffffffffffffffffff16630b3429a26040518163ffffffff1660e01b8152600401602060405180830381865afa1580156120fe573d6000803e3d6000fd5b505050506040513d601f19601f82011682018060405250810190612122919061373c565b8160000181815250508273ffffffffffffffffffffffffffffffffffffffff1663f42024096040518163ffffffff1660e01b8152600401602060405180830381865afa158015612176573d6000803e3d6000fd5b505050506040513d601f19601f8201168201806040525081019061219a919061373c565b8160200181815250508273ffffffffffffffffffffffffffffffffffffffff1663d5cd73916040518163ffffffff1660e01b8152600401602060405180830381865afa1580156121ee573d6000803e3d6000fd5b505050506040513d601f19601f82011682018060405250810190612212919061373c565b8160400181815250508273ffffffffffffffffffffffffffffffffffffffff166314e32da46040518163ffffffff1660e01b8152600401602060405180830381865afa158015612266573d6000803e3d6000fd5b505050506040513d601f19601f8201168201806040525081019061228a919061373c565b8160600181815250508273ffffffffffffffffffffffffffffffffffffffff1663acd786866040518163ffffffff1660e01b8152600401602060405180830381865afa1580156122de573d6000803e3d6000fd5b505050506040513d601f19601f82011682018060405250810190612302919061373c565b8160800181815250508273ffffffffffffffffffffffffffffffffffffffff166334762ca56040518163ffffffff1660e01b8152600401602060405180830381865afa158015612356573d6000803e3d6000fd5b505050506040513d601f19601f8201168201806040525081019061237a919061373c565b8160a00181815250508273ffffffffffffffffffffffffffffffffffffffff166354c365c66040518163ffffffff1660e01b8152600401602060405180830381865afa1580156123ce573d6000803e3d6000fd5b505050506040513d601f19601f820116820180604052508101906123f2919061373c565b8160c001818152505080915050919050565b600060d47ff0000000000fffffffffffffffffffffffffffffffffffffffffffffffffffff19836000015116901c9050919050565b60008060008360000151905060507ffffffffffffffffffffffffffffffffffff000000000ffffffffffffffffffff198216901c60747fffffffffffffffffffffffffff000000000fffffffffffffffffffffffffffff198316901c9250925050915091565b6000807fffffffffffffffffffffffffffffffffffffffffffffffffbfffffffffffffff1983600001511614159050919050565b6000807fffffffffffffffffffffffffffffffffffffffffffffffffdfffffffffffffff1983600001511614159050919050565b6040518060e00160405280600073ffffffffffffffffffffffffffffffffffffffff16815260200160008152602001600015158152602001600081526020016000815260200160008152602001600081525090565b6040518060800160405280600081526020016000815260200160008152602001600060ff1681525090565b604051806106a00160405280600073ffffffffffffffffffffffffffffffffffffffff1681526020016060815260200160608152602001600081526020016000815260200160008152602001600081526020016000815260200160001515815260200160001515815260200160001515815260200160001515815260200160001515815260200160006fffffffffffffffffffffffffffffffff16815260200160006fffffffffffffffffffffffffffffffff16815260200160006fffffffffffffffffffffffffffffffff16815260200160006fffffffffffffffffffffffffffffffff16815260200160006fffffffffffffffffffffffffffffffff168152602001600064ffffffffff168152602001600073ffffffffffffffffffffffffffffffffffffffff168152602001600073ffffffffffffffffffffffffffffffffffffffff168152602001600073ffffffffffffffffffffffffffffffffffffffff168152602001600073ffffffffffffffffffffffffffffffffffffffff168152602001600081526020016000815260200160008152602001600081526020016000815260200160008152602001600073ffffffffffffffffffffffffffffffffffffffff1681526020016000815260200160008152602001600081526020016000815260200160008152602001600081526020016000815260200160001515815260200160001515815260200160006fffffffffffffffffffffffffffffffff16815260200160006fffffffffffffffffffffffffffffffff16815260200160006fffffffffffffffffffffffffffffffff1681526020016000815260200160008152602001600060ff1681526020016000815260200160008152602001600061ffff168152602001600061ffff168152602001600061ffff168152602001600073ffffffffffffffffffffffffffffffffffffffff168152602001606081526020016000151581525090565b6040518060e00160405280600081526020016000815260200160008152602001600081526020016000815260200160008152602001600081525090565b6000819050919050565b6128a781612894565b82525050565b60006020820190506128c2600083018461289e565b92915050565b600073ffffffffffffffffffffffffffffffffffffffff82169050919050565b6000819050919050565b600061290d612908612903846128c8565b6128e8565b6128c8565b9050919050565b600061291f826128f2565b9050919050565b600061293182612914565b9050919050565b61294181612926565b82525050565b600060208201905061295c6000830184612938565b92915050565b6000604051905090565b600080fd5b600080fd5b6000612981826128c8565b9050919050565b600061299382612976565b9050919050565b6129a381612988565b81146129ae57600080fd5b50565b6000813590506129c08161299a565b92915050565b6129cf81612976565b81146129da57600080fd5b50565b6000813590506129ec816129c6565b92915050565b60008060408385031215612a0957612a0861296c565b5b6000612a17858286016129b1565b9250506020612a28858286016129dd565b9150509250929050565b600081519050919050565b600082825260208201905092915050565b6000819050602082019050919050565b612a6781612976565b82525050565b612a7681612894565b82525050565b60008115159050919050565b612a9181612a7c565b82525050565b60e082016000820151612aad6000850182612a5e565b506020820151612ac06020850182612a6d565b506040820151612ad36040850182612a88565b506060820151612ae66060850182612a6d565b506080820151612af96080850182612a6d565b5060a0820151612b0c60a0850182612a6d565b5060c0820151612b1f60c0850182612a6d565b50505050565b6000612b318383612a97565b60e08301905092915050565b6000602082019050919050565b6000612b5582612a32565b612b5f8185612a3d565b9350612b6a83612a4e565b8060005b83811015612b9b578151612b828882612b25565b9750612b8d83612b3d565b925050600181019050612b6e565b5085935050505092915050565b600060ff82169050919050565b612bbe81612ba8565b82525050565b60006040820190508181036000830152612bde8185612b4a565b9050612bed6020830184612bb5565b9392505050565b600060208284031215612c0a57612c0961296c565b5b6000612c18848285016129b1565b91505092915050565b600081519050919050565b600082825260208201905092915050565b6000819050602082019050919050565b6000612c598383612a5e565b60208301905092915050565b6000602082019050919050565b6000612c7d82612c21565b612c878185612c2c565b9350612c9283612c3d565b8060005b83811015612cc3578151612caa8882612c4d565b9750612cb583612c65565b925050600181019050612c96565b5085935050505092915050565b60006020820190508181036000830152612cea8184612c72565b905092915050565b612cfb81612976565b82525050565b6000602082019050612d166000830184612cf2565b92915050565b6000819050919050565b612d2f81612d1c565b8114612d3a57600080fd5b50565b600081359050612d4c81612d26565b92915050565b600060208284031215612d6857612d6761296c565b5b6000612d7684828501612d3d565b91505092915050565b600081519050919050565b600082825260208201905092915050565b60005b83811015612db9578082015181840152602081019050612d9e565b83811115612dc8576000848401525b50505050565b6000601f19601f8301169050919050565b6000612dea82612d7f565b612df48185612d8a565b9350612e04818560208601612d9b565b612e0d81612dce565b840191505092915050565b60006020820190508181036000830152612e328184612ddf565b905092915050565b600081519050919050565b600082825260208201905092915050565b6000819050602082019050919050565b600082825260208201905092915050565b6000612e8282612d7f565b612e8c8185612e66565b9350612e9c818560208601612d9b565b612ea581612dce565b840191505092915050565b60006fffffffffffffffffffffffffffffffff82169050919050565b612ed581612eb0565b82525050565b600064ffffffffff82169050919050565b612ef581612edb565b82525050565b612f0481612ba8565b82525050565b600061ffff82169050919050565b612f2181612f0a565b82525050565b60006106a083016000830151612f406000860182612a5e565b5060208301518482036020860152612f588282612e77565b91505060408301518482036040860152612f728282612e77565b9150506060830151612f876060860182612a6d565b506080830151612f9a6080860182612a6d565b5060a0830151612fad60a0860182612a6d565b5060c0830151612fc060c0860182612a6d565b5060e0830151612fd360e0860182612a6d565b50610100830151612fe8610100860182612a88565b50610120830151612ffd610120860182612a88565b50610140830151613012610140860182612a88565b50610160830151613027610160860182612a88565b5061018083015161303c610180860182612a88565b506101a08301516130516101a0860182612ecc565b506101c08301516130666101c0860182612ecc565b506101e083015161307b6101e0860182612ecc565b50610200830151613090610200860182612ecc565b506102208301516130a5610220860182612ecc565b506102408301516130ba610240860182612eec565b506102608301516130cf610260860182612a5e565b506102808301516130e4610280860182612a5e565b506102a08301516130f96102a0860182612a5e565b506102c083015161310e6102c0860182612a5e565b506102e08301516131236102e0860182612a6d565b50610300830151613138610300860182612a6d565b5061032083015161314d610320860182612a6d565b50610340830151613162610340860182612a6d565b50610360830151613177610360860182612a6d565b5061038083015161318c610380860182612a6d565b506103a08301516131a16103a0860182612a5e565b506103c08301516131b66103c0860182612a6d565b506103e08301516131cb6103e0860182612a6d565b506104008301516131e0610400860182612a6d565b506104208301516131f5610420860182612a6d565b5061044083015161320a610440860182612a6d565b5061046083015161321f610460860182612a6d565b50610480830151613234610480860182612a6d565b506104a08301516132496104a0860182612a88565b506104c083015161325e6104c0860182612a88565b506104e08301516132736104e0860182612ecc565b50610500830151613288610500860182612ecc565b5061052083015161329d610520860182612ecc565b506105408301516132b2610540860182612a6d565b506105608301516132c7610560860182612a6d565b506105808301516132dc610580860182612efb565b506105a08301516132f16105a0860182612a6d565b506105c08301516133066105c0860182612a6d565b506105e083015161331b6105e0860182612f18565b50610600830151613330610600860182612f18565b50610620830151613345610620860182612f18565b5061064083015161335a610640860182612a5e565b506106608301518482036106608601526133748282612e77565b91505061068083015161338b610680860182612a88565b508091505092915050565b60006133a28383612f27565b905092915050565b6000602082019050919050565b60006133c282612e3a565b6133cc8185612e45565b9350836020820285016133de85612e56565b8060005b8581101561341a57848403895281516133fb8582613396565b9450613406836133aa565b925060208a019950506001810190506133e2565b50829750879550505050505092915050565b6000819050919050565b61343f8161342c565b82525050565b60808201600082015161345b6000850182612a6d565b50602082015161346e6020850182613436565b5060408201516134816040850182613436565b5060608201516134946060850182612efb565b50505050565b600060a08201905081810360008301526134b481856133b7565b90506134c36020830184613445565b9392505050565b6000815190506134d9816129c6565b92915050565b6000602082840312156134f5576134f461296c565b5b6000613503848285016134ca565b91505092915050565b600080fd5b7f4e487b7100000000000000000000000000000000000000000000000000000000600052604160045260246000fd5b61354982612dce565b810181811067ffffffffffffffff8211171561356857613567613511565b5b80604052505050565b600061357b612962565b90506135878282613540565b919050565b600067ffffffffffffffff8211156135a7576135a6613511565b5b602082029050602081019050919050565b600080fd5b60006135d06135cb8461358c565b613571565b905080838252602082019050602084028301858111156135f3576135f26135b8565b5b835b8181101561361c578061360888826134ca565b8452602084019350506020810190506135f5565b5050509392505050565b600082601f83011261363b5761363a61350c565b5b815161364b8482602086016135bd565b91505092915050565b60006020828403121561366a5761366961296c565b5b600082015167ffffffffffffffff81111561368857613687612971565b5b61369484828501613626565b91505092915050565b600080fd5b600080fd5b6136b081612894565b81146136bb57600080fd5b50565b6000815190506136cd816136a7565b92915050565b6000602082840312156136e9576136e861369d565b5b6136f36020613571565b90506000613703848285016136be565b60008301525092915050565b6000602082840312156137255761372461296c565b5b6000613733848285016136d3565b91505092915050565b6000602082840312156137525761375161296c565b5b6000613760848285016136be565b91505092915050565b7f4e487b7100000000000000000000000000000000000000000000000000000000600052603260045260246000fd5b6000602082840312156137ae576137ad61369d565b5b6137b86020613571565b905060006137c8848285016136be565b60008301525092915050565b6137dd81612eb0565b81146137e857600080fd5b50565b6000815190506137fa816137d4565b92915050565b61380981612edb565b811461381457600080fd5b50565b60008151905061382681613800565b92915050565b61383581612f0a565b811461384057600080fd5b50565b6000815190506138528161382c565b92915050565b60006101e0828403121561386f5761386e61369d565b5b61387a6101e0613571565b9050600061388a84828501613798565b600083015250602061389e848285016137eb565b60208301525060406138b2848285016137eb565b60408301525060606138c6848285016137eb565b60608301525060806138da848285016137eb565b60808301525060a06138ee848285016137eb565b60a08301525060c061390284828501613817565b60c08301525060e061391684828501613843565b60e08301525061010061392b848285016134ca565b61010083015250610120613941848285016134ca565b61012083015250610140613957848285016134ca565b6101408301525061016061396d848285016134ca565b61016083015250610180613983848285016137eb565b610180830152506101a0613999848285016137eb565b6101a0830152506101c06139af848285016137eb565b6101c08301525092915050565b60006101e082840312156139d3576139d261296c565b5b60006139e184828501613858565b91505092915050565b600060208284031215613a00576139ff61296c565b5b6000613a0e84828501613817565b91505092915050565b7f4e487b7100000000000000000000000000000000000000000000000000000000600052601160045260246000fd5b6000613a5182612894565b91507fffffffffffffffffffffffffffffffffffffffffffffffffffffffffffffffff821415613a8457613a83613a17565b5b600182019050919050565b6000613a9a82612ba8565b915060ff821415613aae57613aad613a17565b5b600182019050919050565b60008060008060808587031215613ad357613ad261296c565b5b6000613ae1878288016136be565b9450506020613af2878288016136be565b9350506040613b03878288016136be565b9250506060613b1487828801613817565b91505092959194509250565b600081519050613b2f81612d26565b92915050565b600060208284031215613b4b57613b4a61296c565b5b6000613b5984828501613b20565b91505092915050565b600080fd5b600067ffffffffffffffff821115613b8257613b81613511565b5b613b8b82612dce565b9050602081019050919050565b6000613bab613ba684613b67565b613571565b905082815260208101848484011115613bc757613bc6613b62565b5b613bd2848285612d9b565b509392505050565b600082601f830112613bef57613bee61350c565b5b8151613bff848260208601613b98565b91505092915050565b600060208284031215613c1e57613c1d61296c565b5b600082015167ffffffffffffffff811115613c3c57613c3b612971565b5b613c4884828501613bda565b91505092915050565b6000602082019050613c666000830184612bb5565b92915050565b600060a08284031215613c8257613c8161369d565b5b613c8c60a0613571565b90506000613c9c84828501613843565b6000830152506020613cb084828501613843565b6020830152506040613cc484828501613843565b6040830152506060613cd8848285016134ca565b606083015250608082015167ffffffffffffffff811115613cfc57613cfb6136a2565b5b613d0884828501613bda565b60808301525092915050565b600060208284031215613d2a57613d2961296c565b5b600082015167ffffffffffffffff811115613d4857613d47612971565b5b613d5484828501613c6c565b91505092915050565b613d668161342c565b8114613d7157600080fd5b50565b600081519050613d8381613d5d565b92915050565b600060208284031215613d9f57613d9e61296c565b5b6000613dad84828501613d74565b91505092915050565b613dbf81612ba8565b8114613dca57600080fd5b50565b600081519050613ddc81613db6565b92915050565b600060208284031215613df857613df761296c565b5b6000613e0684828501613dcd565b9150509291505056fea2646970667358221220771ec3ac6de7b49e3cab953ea75b41796b12a3f1bc20486e7e2b6b24d6621d0764736f6c634300080a0033",
  "linkReferences": {},
  "deployedLinkReferences": {}
}